:020000040800F2
:10000000F8070020010100082B3B0008113400080C
:10001000293B0008FD110008114200080000000003
:10002000000000000000000000000000FF3B00088E
:100030004312000800000000FD3B0008013C0008DE
:100040001B0100081B0100081B0100081B01000820
:100050001B0100081B0100081B0100081B01000810
:100060001B0100081B0100081B0100081B01000800
:100070001B0100081B0100081B01000801120008F9
:100080000D1200081B0100081B0100081B010008DD
:100090001B0100081B0100081B0100081B010008D0
:1000A0001B0100081B0100081B0100081B010008C0
:1000B0001B0100081B010008653C00081B0100082B
:1000C0001B0100081B0100081B0100081B010008A0
:1000D0001B010008F9410008054200081B01000847
:1000E0001B0100081B0100081B010008DFF80CD0F1
:1000F00000F0C2FE00480047554E0008F8070020F7
:100100000648804706480047FEE7FEE7FEE7FEE7B1
:10011000FEE7FEE7FEE7FEE7FEE7FEE7633C0008DA
:10012000ED000008202A04DB203A21FA02F0002129
:10013000704721FA02F3D040C2F1200291400843F7
:1001400019467047D2B201E000F8012B491EFBD2DC
:1001500070470022F6E710B513460A4604461946D2
:10016000FFF7F0FF204610BD421C10F8011B0029CC
:10017000FBD1801A704730B505460020034600E0E9
:100180005B1C934205D2EC5CC85C201A01D1002CA8
:10019000F6D130BD0FB400B58DB010A909900B9009
:1001A00000914FF0FF300A9000200C900548069017
:1001B000054807906A4609A80F9900F05FFD0DB049
:1001C0005DF814FB990C0008B70C00082DE9FF5FDF
:1001D000D2E901A74FF00008916999461446DDF86D
:1001E00038B0464601988847054659EA0B0005D0C5
:1001F00009E0A169761C019888470546216A2846CE
:1002000088470028F5D1681C03D05FEACA7005D082
:1002100015E04FF0FF3004B0BDE8F09F2068011DED
:100220002160D0F800800AE05FEACA7001D108F8C6
:10023000015BA169761C7F1E019888470546002F47
:100240001ADD681C18D0B9F1000F0DD0E81705EBC6
:10025000D060421120F01F0059F822102A1A012004
:1002600090400142E0D107E0BBF1000FDCD1216AF0
:10027000284688470028D7D0E16901988847BBF114
:10028000000F07D1002E05DD5FEACA7002D1002100
:1002900088F80010A068B84203DDBBF1000F03D05E
:1002A00017B16FF00100B6E73046B4E72DE9FF4F14
:1002B000087881B09946FF2805D0491C2D2804D024
:1002C0000024002308E000230BE00124F9E703EBFE
:1002D000830300EB4303491C0878FF28F7D104B1DE
:1002E0005B4200200090147801462D2C01D02B2C6D
:1002F00004D1521C2D2C12D0002400940025167815
:10030000FF2E0ED00A24A0FB04C801FB04810027A5
:1003100000FB0711521C16EB0C006941EFE70124AA
:10032000EBE7994450EA01020ED00024AA4D26467C
:10033000DFF8A88200F064FD82468B46B9F1000028
:1003400009DAC9F100071BE001980021C0E900119A
:1003500005B0BDE8F08F074612E0F80707D0224647
:100360002B463046414600F0B8FA064688462246FB
:100370002B461046194600F0B0FA04460D467F1091
:10038000002FEAD1B9F1000F324643465046594694
:1003900002DA00F014FB01E000F09FFA009A0AB1C3
:1003A00081F00041019AC2E90001D1E72DE9FF4F38
:1003B0001F468DB0D7E901464FF0FF382E20454645
:1003C0004FF000090B90B9696D1C0E988847396A87
:1003D000824688470028F6D1BAF1FF3F0AD024F4BC
:1003E000D064002E11DDBAF12B0F08D0BAF12D0F19
:1003F0000BD102E0404611B0ABE744F48064B96928
:100400006D1C0E9888478246761E6946600501D5A8
:100410002D2000E02B208DF8000001F1010B0DF1E3
:10042000200809E0B9696D1C0E98884782460F982C
:1004300044F40074761E0560002E02DDBAF1300F20
:10044000F0D00B998A453ED144F0800406E00F9924
:10045000681CA9F1010944F400740860B9696D1CB5
:10046000761E0E98884782463028F0D02BE00B99F4
:100470008A4505D1200603D444F08004761E18E096
:10048000504603F0C7FF08B30DF11301761E44F484
:1004900000748B4508D2AAF130000BF8010B20063E
:1004A00007D5A9F1010003E0200602D409F10100FB
:1004B0008146A00502D50F99681C0860B9696D1CBA
:1004C0000E9888478246002ED1DC53E0002E51DD85
:1004D000BAF1650F02D0BAF1450F4BD1A00549D54D
:1004E000B9696D1C24F44074761E0E9888478246C4
:1004F000002E0CDD2B2804D0BAF12D0F07D144F4C7
:100500008074B9696D1C0E9888478246761EE00596
:1005100001D52D2100E02B2108F8011BCDF82C80FE
:1005200021E00DF12901761E44F4007488450CD2B7
:10053000AAF1300010F0FF0088F8000002D10B99FA
:10054000884509D908F1010806E0E00501D52448ED
:1005500001E042F20F708146B9696D1C0E98884720
:1005600082460F980560002E04DD504603F052FFCE
:100570000028D6D1F9690E988847FF208BF8000033
:1005800088F800000020069007904B466A4608A9AC
:1005900006A8FFF78BFEA00502D46FF001002AE742
:1005A00014F0240F0AD0E00714D1DDE906123868F0
:1005B000031D3B600068C0E900120BE0DDE90601A5
:1005C00000F0D1FA0146E00704D13868021D3A6014
:1005D0000068016028460EE7000024400000F03F5C
:1005E000F1D8FFFFF0B480EA0102D40F4200B2EB71
:1005F000410F02D20246084611464A0042D0C30DBE
:10060000DDB2C1F3C752AD1A202D35DAC1F31601A0
:1006100041F4000204B15242C5F1200602FA06F18B
:100620002A411044B3EBD05F23D0C4B1012DA0EB1D
:10063000C35009DCF0BC4FF0004202EAC352DBB207
:1006400000F5000000F051BB400000F1807000EBAD
:10065000C350A0F1807040EAD170490009E0490818
:1006600041EAC071A0EBC35000F50000400800EB68
:10067000C350F0BC00F030BB6142012202EB4101EB
:10068000001BF6E7F0BC704781F00041AAE780F05C
:100690000040A7E780EA010210B502F000434000E5
:1006A00022D04A001FD0010E01EB1261C0F35600A8
:1006B000C2F3560240F4000042F40002A0FB022004
:1006C00000047F39140400D0401C50EA124001D4C9
:1006D0004000491EC2B20C0604EBD010401C40087A
:1006E000802A02D003E0002010BD20F00100002984
:1006F00000DA0020184310BD30B480EA010202F095
:10070000004530F0004221F0004013D090B1C30DFD
:10071000D40DC2F31601C0F31600E41A41F400012F
:1007200040F400027D34914201D3641C00E0490092
:10073000002C02DA30BC002070474FF40000002388
:10074000914201D3891A034340084FEA4101F7D18E
:1007500051B1914202D14FF0004105E002D24FF079
:10076000010101E06FF0010103EBC450284430BCEB
:1007700000F0B2BA420005D0C0F3C75252429142D3
:1007800001DC0020704700EBC15070472DE9FE4F9F
:10079000804681EA0300C00F0C46009021F0004122
:1007A00023F00045B8EB0200A94105D2404621469E
:1007B00090461C460B46024623F00040104347D0AB
:1007C000270DC7F30A00C3F30A510290401A0190A3
:1007D00040286BDAC3F3130040F4801B0098924664
:1007E00020B10023D2EB030A63EB0B0B01985946AF
:1007F000C0F14002504600F019FA06460D46504638
:100800005946019A00F021FA10EB080061410024DA
:1008100087EA115284EAE7731A4340D0009A62B320
:10082000019A012A4FEA075215DC001B61EB020115
:100830004FF0004202EA0752CDE90042001C41F5A8
:10084000801132462B4600F08DFA03B0BDE8F08FE0
:1008500040462146F9E7001B61EB0201001C41F50F
:10086000801300185B412018A2F5001747EB030125
:1008700040EAD570B6196D4111E06D084FEA3606B1
:1008800045EAC0754FEA0752001B61EB0201001CEC
:1008900041F5801149084FEA3000001951413246B4
:1008A0002B4603B0BDE8F04F00F04DBA009801228E
:1008B00040000023D0EB020263EBE0730098214676
:1008C0004FEAE074B8EB000061EB0401E9E783F064
:1008D00000435BE781F0004158E72DE9FE4F81EAD4
:1008E000030404F0004421F0004100944FF0000B99
:1008F00023F0004350EA01045ED052EA03045BD0C7
:10090000C3F30A54C1F30A552C44A4F2F3340194FE
:10091000A0FB0254C1F3130141F48011C3F313038C
:1009200043F4801301FB024400FB034E840A970A40
:1009300044EA815447EA8357A4FB076802958D0A6D
:1009400005FB07854FEA932C04FB0C542705029DF9
:100950004FEA065847EA1637B5EB08056EEB070C69
:10096000870E920E47EA811742EA8312A7FB020123
:10097000B6EB0B0164EB00042B0D43EA0C335E185D
:1009800044EB1C50DA465146E7FB0201C5F3130461
:100990004FEA0B3343EA14534FEA0432019C43EA13
:1009A0000603A4F10C040294009CCDE900B400F00D
:1009B000D9F903B0BDE8F08F00200146F9E72DE931
:1009C000F04D81EA030404F0004B21F00045144689
:1009D0004FF0000A23F0004150EA050220D054EA0B
:1009E00001021DD0C5F30A570246C5F31303C1F334
:1009F0001300C1F30A5640F4801543F48013A7EBAB
:100A00000608101BD64608F2FD3873EB050002D32A
:100A100008F1010801E092185B41B8F1000F03DA18
:100A200000200146BDE8F08D00204FF480110646FD
:100A300084460EE0171B73EB050705D3121B63EB0F
:100A4000050306434CEA010C49084FEA30009218AE
:100A50005B4150EA0107EDD152EA030012D082EA6D
:100A6000040083EA0501084305D0101BAB4106D200
:100A70000122002306E000224FF0004302E06FF065
:100A8000010253101AEB06004CEB085110EB0A0060
:100A900041EB0B01BDE8F04D00F055B970B521F008
:100AA000004303430CD0C1F30A550024D5EB0405E1
:100AB00064EB0403D617AD1AB34102DB00200146F4
:100AC00070BD201841EB025170BDC10F80EAE0708B
:100AD0000844CA079623002100F007B99623002294
:100AE000114600F002B900F0004220F00040C10DB4
:100AF000C0F3160040F400007F2901DA002070479F
:100B0000962903DCC1F19601C84001E0963988407E
:100B1000002AF4D04042704720F00040C10DC0F3DD
:100B2000160040F400007F2901DA00207047962962
:100B300003DCC1F19601C840704796398840704780
:100B400000F0004230F000400AD0C10D01F56071A4
:100B5000C0F3160042EA0151C20840071143704732
:100B600000200146704701F0004330B421F00041FD
:100B700050EA010206D00A0DA2F56072C1F313011A
:100B8000002A02DC30BC00207047440F44EAC10454
:100B9000C100E01830BC00EBC25000F09DB830B589
:100BA0000B46014600202022012409E021FA02F52B
:100BB0009D4205D303FA02F5491B04FA02F52844C5
:100BC000151EA2F10102F1DC30BD2DE9F05F0546F2
:100BD000002092469B4688460646814640241BE0FC
:100BE0002846414647462246FFF79CFA53465A4656
:100BF000C01A914110D311461846224600F016F84B
:100C00002D1A67EB01084F4622460120002100F013
:100C10000DF817EB00094E41201EA4F10104DFDCA2
:100C2000484631462A464346BDE8F09F202A04DB69
:100C3000203A00FA02F1002070479140C2F12003EF
:100C400020FA03F3194390407047202A06DBCB17A4
:100C5000203A41FA02F043EAE07306E041FA02F377
:100C6000D040C2F12002914008431946704700006D
:100C7000026811441378016018467047D160044936
:100C800051610449116200211161114600F00CB953
:100C9000710C00089D0E0008426842B1016811F80D
:100CA000013B23B1521EC0E90012184670470121D2
:100CB000C160881E704742685AB1C368016843B971
:100CC00083688B4205D0491E521CC0E900120020E7
:100CD00070474FF0FF3070470029A8BF7047401C95
:100CE000490008BF20F00100704710B4B0FA80FC42
:100CF00000FA0CF050EA010404BF10BC704749B17F
:100D0000CCF1200421FA04F411FA0CF118BF0121EE
:100D100021430843A3EB0C01CB1D4FEA00614FEACE
:100D2000102042BF002010BC704700EBC35010449D
:100D30000029A4BF10BC7047401C490008BF20F028
:100D4000010010BC704710B5141E73F1000408DADE
:100D5000401C41F1000192185B411A4301D120F07F
:100D6000010010BD2DE9F04D92469B4611B1B1FA3C
:100D700081F202E0B0FA80F220329046FFF756FF8F
:100D800004460F4640EA0A0041EA0B0153465A4620
:100D9000084313D0114653EA010019D0C8F14002AC
:100DA0005046FFF7BFF905460E46504659464246A3
:100DB000FFF73CFF084305D0012004E020463946F8
:100DC000BDE8F08D0020054346EAE0762C4337432A
:100DD0000A986305E40AA0EB08000022FD0A44EA31
:100DE00047540A3002D500200146E9E701051019F1
:100DF0006941DDE9084500196941BDE8F04DA2E708
:100E00000EB540F2334202920022CDE90022134691
:100E1000FFF7A8FF03B000BDC1F30A52C1F31301ED
:100E200040F2FF3341F480119A4202DA0020014679
:100E3000704740F233439A42A2F2334202DC5242FC
:100E4000FFF770B9FFF7F2BE30B5041E71F1000470
:100E500004DB4FF00044404264EB0101141E73F1C7
:100E6000000405DB1C464FF00043524263EB0403D1
:100E7000994208BF904230BD064C074D06E0E0683D
:100E800040F0010394E8070098471034AC42F6D3D1
:100E9000FFF730F9E850000808510008C0B24FF4DD
:100EA000F05100F097B900002DE9F34F8BB04FF0EF
:100EB000000801F10C000C464FF0010B46460DF105
:100EC000080A01906269012101989047051E2DD002
:100ED000252D2CD0216A8847C0B162690121019873
:100EE0009047216A88470028F7D1411E626901981E
:100EF000904700E0761CA1690B988847216A8847D3
:100F00000028F7D1E1690B988847DBE7A1690B98C6
:100F100088470746A84201D1761CD3E7E1690B98C0
:100F200088477F1C02D1B8F1000F6FD046E100273F
:100F300062693D463946019890472A2804D1626982
:100F40000121019890470125DFF88492626901210F
:100F500001989047A0F130010A290AD24F45E5DCFB
:100F600007EB870100EB4107303FDFD445F0100568
:100F7000ECE7E90601D46FF000476C280AD04C2852
:100F800014D0682815D06A280DD074281CD07A286F
:100F90001AD01DE062690121019890476C2802D0A7
:100FA00045F0040514E045F002050DE045F020058C
:100FB0000AE06269012101989047682802D045F053
:100FC000080505E045F40065626901210198904734
:100FD000C4E9015765283DD019DC58287AD00CDCCB
:100FE000452837D004DC252826D0412831D131E0EE
:100FF00046282FD047282CD12CE05B2877D06128B9
:1010000028D063287CD0642823D15AE0D0E06F2810
:1010100048D008DC66281DD067281BD0692821D05D
:101020006E2816D127E0702845D0732868D075281F
:1010300047D078280DD14DE0A1690B988847054627
:1010400025283FF469AFE1690B9888476D1C3FF490
:101050006AAFB3E023466A466FF001000B99FFF7D1
:10106000A5F99EE045F040006060A80723464FF0D8
:10107000000236D43EE0E8077FF447AF2068011D48
:1010800021600068290501D506701BE7290701D5F5
:10109000068017E7A90703D5F117C0E9006111E73A
:1010A00006600FE745F040006060A80723464FF058
:1010B000080216D41EE040F60E0125EA0100606029
:1010C00016E045F040006060A80723464FF00A0292
:1010D00007D40FE045F040006060A80708D523461C
:1010E00010226FF001000B99AFF3008059E007E088
:1010F000234610226FF001000B99AFF3008050E0FF
:101100004FF000094F464B46632802D05B2806D0BB
:1011100040E0E80601D40120A06001273AE06269BE
:101120000121019890475E2805D14FF001096269BD
:10113000494601989047216939B900210A4653462A
:1011400043F82120491C0829FADBB0B3216969B9A9
:10115000C11700EBD16253110AEB830122F01F0289
:10116000821A01200B68904003430B6062690121E1
:10117000019890475D28E8D1B9F1000F09D000200F
:10118000514651F82020D24341F82020401C082825
:10119000F7DB02AB224600976FF001000B99FFF7D7
:1011A00015F800280CDA401C08D1BBF1000F05D05F
:1011B0004FF0FF300DB0BDE8F08FFFE74046F9E794
:1011C000E90701D108F1010806444FF0000B79E668
:1011D000CCCCCC0C7F2801D9002208E0064A02EBD7
:1011E0005002C007127800D1120902F00F0201204C
:1011F0009040084070470000A8500008FEE700003B
:10120000014800F091B800006C030020014800F094
:101210008BB80000B003002030B590F84050012496
:10122000AC40C56B6C60046863604368102B036856
:1012300003D099600068C26030BD9A600068C160E8
:1012400030BD704772B6FEE710B590F8211000224D
:10125000022905D00421816380F82020012010BDDF
:1012600001680B6823F00E030B6001680B6823F024
:1012700001030B6090F84030C46B012101FA03F3C5
:10128000636080F8211080F82020104610BD000017
:1012900010B590F821100024022903D004218163A5
:1012A00001243DE001680A6822F00E020A6001682C
:1012B0000A6822F001020A601A4A0168914201D1CB
:1012C000012121E0174A1432914201D110211BE083
:1012D000144A2832914201D1891515E0114A3C3255
:1012E000914201D189140FE00E4A5032914202D14D
:1012F0004FF4803108E00B4A6432914202D14FF43E
:10130000801101E04FF08071064A083A51600121D6
:1013100080F82110002180F82010416B01B188472E
:10132000204610BD080002402DE9F05FC16B0C683B
:1013300001680B68D0F840C0042202FA0CF2494D53
:10134000DFF824A1494E4A4FDFF828B1DFF828E141
:1013500022422CD05A072AD50A68920603D40A687A
:1013600022F004020A600168A94201D1042219E0B6
:10137000514501D1402215E0B14202D14FF48062C3
:1013800010E0B94202D14FF480420BE0594502D13E
:101390004FF4802206E0714502D14FF4800201E053
:1013A0004FF080622F4908394A60C16A3BE04FF034
:1013B000020808FA0CF818EA040F4FF000094FF081
:1013C000010235D05FEA837832D50B689B0605D4DD
:1013D0000B6823F00A030B6080F821200168A94202
:1013E00001D1022219E0514501D1202215E0B1427C
:1013F00002D14FF4007210E0B94202D14FF4005212
:101400000BE0594502D14FF4003206E0714502D19C
:101410004FF4001201E04FF00072124908394A609F
:1014200080F82090816A00291AD0BDE8F05F084753
:10143000082505FA0CF5254212D01B0710D50B68BC
:1014400023F00E030B6090F84010C36B02FA01F119
:101450005960826380F8212080F82090016BE2E7D8
:10146000BDE8F09F080002401C000240300002402E
:1014700044000240580002406C00024030B528B3DE
:1014800008C8134914221944B1FBF2F18900C16361
:1014900010498163022141771A6843F6F0718A434B
:1014A000D0E900142143D0E902452C4321430469CB
:1014B0002143446921438469214311431960002178
:1014C0004163012242770177084630BD012030BDDB
:1014D000F8FFFDBF0000024070B5044690F8200000
:1014E000002501280CD0012084F8200094F8216008
:1014F0000020012E06D084F820000225284670BD69
:10150000022070BD022684F82160A063206806686E
:1015100026F0010606602046FFF77EFEE06A0028FE
:101520002068016802D041F00E0106E021F00401BC
:1015300001602068016841F00A01016020680168CB
:1015400041F001010160D9E770B5044600F00CF9E3
:101550000546601C02D004480078044400F004F9F9
:10156000401BA042FAD370BD540000202DE9F84F73
:10157000DFF8B891002409F1040A0AF1040B2346AC
:101580000F270BF1040EC9E00125A5402A40AA420D
:101590007DD1674ED1F804C0ACEB0608B44532D01B
:1015A00014DCBCF1030F3AD009DCBCF1000F2AD0E7
:1015B000BCF1010F1CD0BCF1020F31D11DE0BCF118
:1015C000110F17D0BCF1120F2AD119E0B8F5881FFE
:1015D00019D006DCB8F5803F15D0B8F5801F1FD1B3
:1015E00011E0B8F5001F0ED0B8F5041F18D10AE0BD
:1015F000CB6815E0CB681B1D12E0CB6808330FE009
:10160000CB680C330CE08B682BB1012B4FF0080337
:1016100003D0456104E0042302E0056100E00023FB
:10162000FF2A01D8064601E000F104064FEA8405CE
:1016300001D9A5F12005D6F8008007FA05FC28EAB3
:101640000C0803FA05F548EA0508C6F800804D685D
:10165000ED0062D5374DAE6946F00106AE61AD6969
:1016600024F0030605F001050095334D06EB050C4B
:10167000DCF80850A607360F07FA06F825EA080531
:10168000DFF8B880404503D14FF0000817E044E090
:10169000DFF8AC80404502D14FF001080FE0DFF8E1
:1016A000A480404502D14FF0020808E0DFF898809E
:1016B000404502D14FF0030801E04FF0040808FA5A
:1016C00006F848EA0508CCF808804D68D9F80060AB
:1016D000ED034D4601D5164300E096432E604D685C
:1016E000DAF80060AD03554601D5164300E0964395
:1016F0002E604D68DBF80060ED025D4601D51643B3
:1017000000E096432E604D68DEF80060AD0275463D
:1017100001D5164300E096432E60641C0D682A46EE
:10172000E5407FF431AFBDE8F88F000000040140D0
:1017300000001110001002400000014000080140AC
:10174000000C01400010014000140140C26821EA71
:1017500002030A4043EA0241016170470AB1016194
:1017600070470904FBE700000148806870470000EB
:101770005400002070B5040025D094F83D000025E9
:1017800020B984F83C50204600F078FA242084F8F0
:101790003D002068016821F00101016020680168B6
:1017A00041F4004101602068016821F400410160BA
:1017B00000F0CAFB4D4A6168914201D84C4900E0F3
:1017C0004C49884201D2012070BD4B492368B0FBCF
:1017D000F1F15E6826F03F060E435E606368934257
:1017E00006D94FF4967359434FF47A73B1FBF3F172
:1017F0002368491C1E6A26F03F063143196261685E
:10180000914210D84900401EB0FBF1F2521CC2F3C5
:101810000B02042A01D2042022E0B0FBF1F0401CAC
:10182000C0F30B001CE0A268F2B301EBC10303EBB1
:101830000116431EB3FBF6F35B1C43F480431B0508
:1018400049D092B301EBC10202EB0111401EB0FB83
:10185000F1F0401CC0F30B0040F4804040F4004025
:101860002168CA694CF6FF739A431043C861D4E9F2
:10187000071001432068026822F0C0021143016092
:10188000D4E9030101432068826848F2FF339A4398
:1018900011438160D4E9050108432168CA6822F038
:1018A000FF021043C86001E00EE016E02068016806
:1018B00041F0010101602564202084F83D0025638A
:1018C00084F83E50002070BD01EB4106431EB3FB7F
:1018D000F6F35B1CB3E70120C2E701EB4101401EB8
:1018E000B0FBF1F0401CC0F30B00B7E7A08601008D
:1018F00080841E0000093D0040420F002DE9FF4F8B
:1019000083B00025DDE910799A4693460446DDF858
:1019100048800095FFF728FF064694F83D002028F0
:101920007CD11923012285492046009601F080FED2
:101930000028F5D194F83C0001286FD0012084F8EC
:101940003C0020680168C90703D1016841F001012A
:1019500001602068016821F400610160222084F8A0
:101960003D00402084F83E0025646762A4F82A9078
:10197000608D20857248E062CDE9008653465A4664
:101980002046049901F05CFD00287DD1208DDFF810
:10199000B491202768B1012814D00228206801687A
:1019A0001ED041F480610160206841698069009027
:1019B000B6E02068416981690091016841F40071D5
:1019C0000160ADE02068016821F48061016072B6B9
:1019D0002068416981690091016841F400710AE061
:1019E00041F40061016072B620684169816900912B
:1019F000016821F48061016062B691E0032868D833
:101A000001280CD0022843464FF0000249462046E8
:101A100000960FD001F00CFEB0BB10E08BE0324618
:101A20004146204601F083FE70BB20680069616A70
:101A300008706CE001F0FCFD30BB72B634E0206849
:101A4000016821F48061016072B620680069616AF2
:101A50000870606A401C6062208D401E2085608D89
:101A6000401E6085384846F2A8110068B0FBF1F0CE
:101A7000C0EBC00000EB80000090401E009008D03A
:101A800020684069C04300E029E040070CD5009879
:101A9000F3E744F8305F6773A573206940F02000D6
:101AA000206162B625731AE02068016841F4007174
:101AB000016020680069616A0870606A401C6062A9
:101AC000218D491E2185618D491E618562B621687F
:101AD0001BE032464146204601F029FE18B10120A4
:101AE00007B0BDE8F08F20680069616A0870606A1D
:101AF000401C6062218D491E2185618D491E6185D2
:101B000021684A69D24352070AD409690170606AA0
:101B1000401C6062208D401E2085608D401E6085C7
:101B2000208D00287FF46AAF84F83D7084F83E5021
:101B300084F83C50D4E70220D2E7000002001000F5
:101B40000000FFFF04000100600000202DE9FF4FAE
:101B500083B09A46DDE9119793460446DDF840804C
:101B6000FFF702FE054694F83D0020287FD1192397
:101B7000012240492046009501F05AFD002876D107
:101B800094F83C00012872D0012084F83C002068C1
:101B90000168C90703D1016841F0010101602068B3
:101BA000016821F400610160212084F83D0040209B
:101BB00084F83E0000262664C4F82480A4F82A9005
:101BC000608D20852C48E062CDE9007553465A4669
:101BD0002046049901F0B2FC70B930E02A4639463B
:101BE000204601F0D7FD58B1206C042804D12068AC
:101BF000016841F400710160012007B0BDE8F08F79
:101C0000606A216800780861606A401C6062218D0A
:101C1000491E89B22185628D521E628522685369F0
:101C2000DB435B070BD469B100781061606A401C2C
:101C30006062208D401E2085608D401E6085208D55
:101C40000028CBD12A463946204601F0CBFC00289B
:101C5000CAD154F83D0B016841F4007101602020A5
:101C600004F81E09E67766770020C6E7FFE7022042
:101C7000C3E70000020010000000FFFF10B586B0AF
:101C8000002100910191029103910068134988425B
:101C900022D1134CA06940F00800A061A0696946F8
:101CA00000F0080004904FF4407000901220019062
:101CB000032003900B48FFF759FC0B48416841F0A3
:101CC000E06141F002014160E06940F40010E06130
:101CD000E06900F40010049006B010BD005400400C
:101CE00000100240000C01400000014002488168E1
:101CF000027811448160704754000020074810B5F5
:101D0000016841F010010160032000F075F8002027
:101D100000F006F800F024F8002010BD002002407A
:101D200070B50D4D04464FF47A712878B1FBF0F090
:101D30000A490968B1FBF0F000F086FB48B9102CA5
:101D400007D200222146501E00F036F800206C60B9
:101D500070BD012070BD0000540000206000002014
:101D60000C4808B5816941F001018161816901F088
:101D700001010091C16941F08051C161C06900F069
:101D8000805000900448416821F0E06141F000710A
:101D9000416008BD0010024000000140002809DB3E
:101DA00000F01F02012191404009800000F1E02075
:101DB000C0F8001170470000F0B40E4B1B680C46D1
:101DC000C3F30223C3F10705042D00D90425191D0F
:101DD000072901D2002300E0DB1E012606FA05F1E7
:101DE000491E214099409E40761E16403143F0BC6A
:101DF00002F037BA0CED00E0064900F0070208686F
:101E00004FF6FF03184040EA0220034A10430860DF
:101E1000704700000CED00E00000FA052DE9F047E6
:101E20000F46050061D0434E306800F00700B8420D
:101E300009D2306820F0070038433060306800F085
:101E40000700B84251D128683B4C810712D54007A2
:101E500003D5606840F4E06060602878000703D52F
:101E6000606840F4605060606068A96820F0F0002D
:101E7000084360602878C00728D06868012810D01F
:101E80002168022810D0890700292EDA616821F024
:101E9000030101436160FFF767FC804641F2883926
:101EA0000DE021688903EFE78901EDE7FFF75CFCAE
:101EB000A0EB0801494502D90320BDE8F08760681E
:101EC000696800F00C00B0EB810FEFD1306800F0D2
:101ED0000700B8420BD9306820F007003843306063
:101EE000306800F00700B84201D00120E5E728780B
:101EF000400705D56068E96820F4E0600843606049
:101F00002878000706D56068296920F4605040EA07
:101F1000C100606000F038F86168084AC1F303113D
:101F2000515CC8400649086006480068FFF7F8FEA3
:101F30000020C2E70020024000100240905000083C
:101F400060000020580000200448054900684968E6
:101F5000044AC1F30221515CC84070476000002070
:101F600000100240A0500008044805490068496874
:101F7000044AC1F3C221515CC84070476000002090
:101F800000100240A050000812A185B00FC98DE8D2
:101F90000F0014A0144A006804905168134801F01F
:101FA0000C03042B10D0082B0ED1C1F38343C903BB
:101FB0001DF803000AD5516804AAC1F34041515CE1
:101FC0000A4A5043B0FBF1F005B070470849484356
:101FD000FAE7000002030405060708090A0B0C0DC6
:101FE0000E0F1010010200000010024000127A00D3
:101FF00000093D002DE9F84F040070D02078C04D55
:10200000C00749D06868C0F38100012807D068681C
:10201000C0F38100022809D16868C00306D528688A
:10202000800339D560680028E7D035E06068B0F5F6
:10203000803F0BD010B1B0F5A02F11D0286820F44C
:1020400080302860286820F4802002E0286840F46E
:1020500080302860606890B1FFF786FB06460AE092
:10206000286840F480202860F0E700BFFFF77CFB81
:10207000801B642873D828688003F7D50CE0FFF72D
:1020800073FB064605E000BFFFF76EFB801B64286C
:10209000F0D828688003F7D420789A4E80074FF054
:1020A00001094FF0000839D5686810F00C0F07D00F
:1020B0006868C0F38100022809D16868C00306D4AB
:1020C0002868800714D52069012808D110E020690C
:1020D000B0B1C6F80090FFF747FB074605E00AE1FC
:1020E000FFF742FBC01B0228C4D828688007F7D539
:1020F0002868616920F0F80040EAC10028600DE01E
:10210000C6F80080FFF730FB074604E0FFF72CFB22
:10211000C01B022823D828688007F7D4207800073E
:102120002CD57948A169D9B1C0F80090FFF71CFB04
:10213000074604E0FFF718FBC01B02280FD8686AA7
:102140008007F7D571484FF4FA510068B0FBF1F001
:10215000009000BF0098411E0091FAD20EE080E08E
:10216000C0F80080FFF700FB074604E0FFF7FCFA29
:10217000C01B022875D8686A8007F7D4207840070A
:1021800060D5E8690027C00008D4E86940F08050B5
:10219000E861E869012700F0805000905C48016820
:1021A000C90513D40168834641F480710160FFF7CB
:1021B000DBFA824606E000BFFFF7D6FAA0EB0A0082
:1021C00064284ED8DBF80000C005F5D5E06801288A
:1021D0000AD008B1052813D0286A20F0010028622F
:1021E000286A20F0040002E0286A40F0010028621A
:1021F000E06841F2883B98B1FFF7B6FA82460BE0FF
:10220000286A40F004002862EEE700BFFFF7ACFA4E
:10221000A0EB0A0159455AD8286A8007F6D50CE088
:10222000FFF7A2FA824605E0FFF79EFAA0EB0A014B
:1022300059454CD8286A8007F6D41FB1E86920F0C8
:102240008050E861E06988B36968C1F381010229BF
:1022500044D00228C6F8608004D0FFF785FA04460F
:1022600038E034E0FFF780FA074604E0FFF77CFA35
:10227000C01B02282BD828688001F7D4206AB0F54B
:10228000803F05D16868A16820F400300843686089
:10229000D4E908010843696821F4741108436860AF
:1022A000C6F86090FFF760FA044606E025E000BF3C
:1022B000FFF75AFA001B022809D828688001F7D5D1
:1022C0001BE000BFFFF750FA001B022802D90320D1
:1022D000BDE8F88F28688001F4D40EE00128F7D01B
:1022E0006868226A00F48031914204D1616A00F486
:1022F0007010884201D00120EAE70020E8E70000E2
:10230000001002400000424280044242600000206F
:102310000070004070B5040009D0606A002540B12B
:1023200025616561A56294F8510040B10CE001207F
:1023300070BD6068B0F5827FF4D0E561F2E784F8A3
:102340005050204600F040F8022084F851002068E8
:10235000016821F040010160A088218900F48270A9
:1023600001F404410843A18901F400610843217C80
:1023700001F002010843217D01F001010843218B96
:1023800001F400710843217F01F03801084394F8FB
:10239000201001F080010843218D01F40051084311
:1023A00021680860A069042101EA104021684860A2
:1023B0002068C16921F40061C1616565012084F86C
:1023C0005100002070BD000030B585B0002400949D
:1023D0000194029403940068174988422AD117484F
:1023E000816941F480518161816901F480510491D6
:1023F000816941F0080181618069114D00F0080098
:102400000490282000900220019003200390694648
:102410002846FFF7ABF81020CDE9000469462846AE
:102420000294FFF7A3F80748416841F0E06141F0EA
:102430000101416005B030BD003001400010024094
:10244000000C01400000014010B5401EB0F1807F3B
:1024500001D3012010BD4FF0E02460610F2160170F
:1024600001F0FFFE0020A06107202061002010BDC8
:102470007047704710B590F83C20012A22D0012205
:1024800080F83C20CA688C6822F4407222434C6871
:1024900022F4806222430C6822F4006222430C6919
:1024A00022F4805222434C6922F400522243C9692B
:1024B000002322F480420A4301684A6480F83C30D9
:1024C000002010BD022010BD70B590F83C20012AFC
:1024D00026D0012480F83C40022280F83D20036889
:1024E0005A689D6822F070060A6832435A600D4BA4
:1024F00002689A4208D0B2F1804F05D00A4B9A4246
:1025000002D00A4B9A4204D1496825F0800319434E
:10251000916080F83D40002180F83C10084670BD75
:10252000022070BD002C0140000400400008004063
:1025300010B5040003D094F83D0010B107E001206D
:1025400010BD002084F83C00204600F01FF8022057
:1025500084F83D00211D206801F08AFB012084F8E9
:10256000460084F83E0084F83F0084F8400084F878
:10257000410084F8420084F8430084F8440084F861
:10258000450084F83D00002010BD000008B5174A42
:1025900001681748914207D1816941F40061816166
:1025A000806900F400601EE0B1F1804F14D0114A40
:1025B000914219D1C16941F00401C161C069002291
:1025C00000F00400009011461E20FFF7F5FBBDE867
:1025D00008401E20FFF7E2BBC16941F00101C16163
:1025E000C06900F00100009008BD0000002C01400F
:1025F000001002400008004090F83D10012901D071
:1026000001207047022180F83D100168CA6842F03D
:102610000102CA6000680B49884208D0B0F1804FBF
:1026200005D00949884202D00849884204D181680E
:1026300001F00701062903D0016841F001010160A2
:1026400000207047002C01400004004000080040BA
:1026500070B5044690F83C00012817D0012584F895
:102660003C50022084F83D002068826822F0770206
:1026700022F47F4282600868502830D00DDC202888
:102680004DD005DC98B310283BD148E0022070BD46
:10269000302844D0402834D139E0602828D0702830
:1026A00006D0B0F5805F2CD0B0F5005F29D10AE0EC
:1026B000CB68D1E90121206801F01DFB2068816809
:1026C00041F0770109E0CB68D1E90121206801F0F0
:1026D00012FB2068816841F48041816011E0CA6882
:1026E0004968206801F0BCFB5021206807E016E033
:1026F000CA684968206801F0C4FB6021206801F0C5
:1027000004FB84F83D50002084F83C0070BDCA688A
:102710004968206801F0A4FB40212068EFE72268A7
:1027200001461046EBE72DE9F0410D46040003D0C9
:1027300094F83D0018B108E00120BDE8F0810020C8
:1027400084F83C00204600F041F8022084F83D0067
:102750002068816844F2070291438160211D20684E
:1027600001F086FA226890689169166A2B68AF6951
:10277000034340F20330814341EA0721A868EF692F
:1027800008434FF6FC418843E96840EA07200143CB
:1027900028692F6A000140EA0730084369686D69BB
:1027A00026F0220646EA05152943936022689061C7
:1027B00054F8460B0162012004F81F09E0752076E9
:1027C000E0762077A0750020B7E7000000B585B05F
:1027D0000021009101910291039100680D49884206
:1027E00016D10D48C16941F00201C161C16901F012
:1027F00002010491816941F00401816180696946A7
:1028000000F004000490C02000900448FEF7AEFEE3
:1028100005B000BD00040040001002400008014067
:1028200070B590F83E60044690F83F5090F8423002
:1028300090F84320022021B104290ED0012E1BD193
:1028400014E0012E18D1012B16D184F83E0084F833
:10285000420001220021206820E0012D0CD1012A34
:102860000AD184F83F0084F8430014E0012D03D11D
:10287000012B01D1012A01D0012070BD84F83E0056
:1028800084F83F0084F8420084F8430001220021CC
:10289000206801F023FA01220421206801F01EFAC9
:1028A0002068016841F001010160002070BD70479F
:1028B00070B50446006801694FF00005C9438907F7
:1028C00015D4C168C943890711D4E91E01610120EB
:1028D0002077206880698007204602D0FFF7E7FF55
:1028E00004E000F0CFF8204600F05EF9257720687C
:1028F0000169C943490717D4C168C943490713D4BB
:102900006FF004010161022020772068806910F4D3
:10291000407F204602D0FFF7CAFF04E000F0B2F883
:10292000204600F041F9257720680169C94309076D
:1029300016D4C168C943090712D46FF008010161B8
:10294000042020772068C0698007204602D0FFF766
:10295000AEFF04E000F096F8204600F025F9257758
:1029600020680169C943C90617D4C168C943C906AB
:1029700013D46FF010010161082020772068C0692E
:1029800010F4407F204602D0FFF791FF04E000F0F2
:1029900079F8204600F008F9257720680169C943D5
:1029A000C90708D1C168C943C90704D1891E01619B
:1029B000204600F049F920680169C943090609D495
:1029C000C168C943090605D46FF080010161204642
:1029D000FFF74EFD20680169C943490609D4C16863
:1029E000C943490605D46FF040010161204600F05B
:1029F00095F920680169C94389060BD4C168C943A8
:102A0000890607D46FF0200101612046BDE87040BF
:102A1000FFF72FBD70BD000010B586B000210091FA
:102A2000019102910391144C036814490222144845
:102A3000A3420DD18B6943F004038B618969039232
:102A400001F0040104914FF44071CDE900120DE052
:102A5000B3F1804F0DD18B6943F004038B61896919
:102A6000009201F004010192CDE903216946FEF7CD
:102A70007DFD06B010BD0000002C0140001002409A
:102A800000080140704770B5044690F83C000D46C0
:102A900001280AD0012084F83C0042B1042A18D051
:102AA000082A2AD00C2A4DD139E0022070BD2068B6
:102AB00001F034F92068816941F0080181612068E2
:102AC000816921F004018161206881692A691143CB
:102AD00011E0206801F04AF92068816941F4006141
:102AE00081612068816921F4806181612068816948
:102AF0002A6941EA0221816124E0206801F062F93B
:102B00002068C16941F00801C1612068C16921F0F4
:102B10000401C1612068C1692A69114311E020687C
:102B200001F07CF92068C16941F40061C16120684D
:102B3000C16921F48061C1612068C1692A6941EAE3
:102B40000221C161002084F83C0070BD10B5040072
:102B500003D094F83D0010B107E0012010BD002023
:102B600084F83C00204600F01EF8022084F83D0066
:102B7000211D206801F07CF8012084F8460084F8CB
:102B80003E0084F83F0084F8400084F8410084F857
:102B9000420084F8430084F8440084F8450084F837
:102BA0003D00002010BD70477047000010B504467E
:102BB000022249B104290ED0082913D094F841000B
:102BC000012816D0012010BD94F83E000128F9D14B
:102BD00084F83E200FE094F83F000128F2D184F8F9
:102BE0003F2008E094F840000128EBD184F8402011
:102BF00001E084F841200122206801F06FF80F49BC
:102C00002068884203D1426C42F40042426420684A
:102C1000884208D0B0F1804F05D00949884202D0DF
:102C20000849884204D1816801F00701062903D0D0
:102C3000016841F001010160002010BD002C01403D
:102C4000000400400008004070B52B4CE0780028DC
:102C500051D04FF400512948FEF778FD284D2868DF
:102C6000A062FEF781FD0646A0612868E16A401A6D
:102C700000EB80008000FDF731FF2249FDF73CFDAD
:102C8000FDF75EFF204D214B2A46FDF726FE002270
:102C90001F4BFDF794FEFDF766FFE063FDF750FF65
:102CA0002A461C4BFDF719FEFDF75DFF0546A063A4
:102CB000E0694FF47A71301AB0FBF1F0FDF70EFFC6
:102CC0002A46216900F032FF134D06462868FDF7B9
:102CD00005FF3146FDF786FCFDF71EFF28602968D9
:102CE00040F6B830814201D9286000E02868A06928
:102CF000E061A06AE06270BD0000002000100140A9
:102D00002404004000001444CDCCCCCCCC8C4740F3
:102D100000005940CCCC0C40342C0140704738B5F1
:102D2000044690F83E0020281CD181B17AB194F875
:102D30003C00012816D0012084F83C002063204686
:102D400001F0F0F9002803D1216B012901D0012005
:102D500038BD21680A684A680092CA6842F01002C9
:102D6000CA6038BD022038BD2DE9F0470E46054641
:102D700086B0012275497648FFF7D1FF75493222A6
:102D800001F24220FFF7CBFF704C7349241F2670DD
:102D9000286888421FD1062270A16E48FDF7EBF922
:102DA000A8B9A11D01F10E00CDE900014B1E00F1F3
:102DB00020026CA16748FDF7EDF96179606B02F0C4
:102DC00009F96063A179606902F004F96061A07893
:102DD000C0F10100A0706849286888427ED16078FF
:102DE000002812D0654B217900201D1D1A076A2981
:102DF00075D014DC61292BD008DCA1F13000042847
:102E000003D852480C3002F027F997E0642922D009
:102E100066291AD0672920D0682911D183E06B393F
:102E200040F628260D290BD2DFE801F083851A75BC
:102E30007888881A0B3188880700186028601E601F
:102E40007CE0186028602E6078E01860286075E0EB
:102E50004FF4E17071E096206FE040F245106CE0B5
:102E60003C4832213238FDF774F96069FDF768FE9D
:102E700005460E46606BFDF763FE02463548CDE918
:102E800000560B463EA1323801F0C4F937E0314814
:102E900032213238FDF75DF92C483C3002F0C0F8A1
:102EA0002A4B3C33A3F13402911E881E01F0A2FF8D
:102EB00005462063274832213238FDF74AF9A06BD6
:102EC000FDF73EFE80468A462846FDF739FE074656
:102ED00089466069FDF734FE054601E032E025E0F1
:102EE0000E46606BFDF72CFE8DE8E00202461948A5
:102EF000CDE9048A0B4624A1323801F08BF915483C
:102F00003238FDF731F9134982B26423323910485F
:102F100000F024FA12E00120E0700FE0E070186089
:102F200002F08EF80AE040F26F1006E040F29910CD
:102F300003E0D02001E04FF4857090636078C0F129
:102F40000100607006B0BDE8F087000004000020BA
:102F5000E4020020E60000200044004024474E47E1
:102F60004C4C000024474E474C4C2C25662C2563C6
:102F70002C25662C2563000000380140342C0140CC
:102F800025662C25660D0A0025662C25662C2566EF
:102F90002C25660D0A00000070470000F8B5026895
:102FA00004461068D168536910F00F0F4FF0000508
:102FB00054D003F0010601F4907737435FD0C20785
:102FC00005D0CA0503D5226C42F0010222644207F3
:102FD00005D5DA0703D0226C42F002022264820790
:102FE00005D5DA0703D0226C42F0040222640207FE
:102FF00007D501F02002324303D0226C42F00802D0
:103000002264226C002A35D0800604D5880602D5B9
:10301000204600F0D0FF20684069216CC0F380108A
:1030200001F008010143204625D000F0A3FF2068ED
:10303000416949061BD5416921F040014161A06BFE
:10304000A8B158494163A06BFEF722F9002811D0BE
:10305000A06B416B01B0BDE8F040084783060ED578
:103060008B060CD52046BDE8F84000F0A4BF2046F2
:10307000FFF792FFF8BDFFF78FFF2564F8BD266BC1
:103080002023012E52D1C60650D5CE064ED510684B
:1030900050680090506940062AD5A16B08684068C6
:1030A0000004000CEAD0A68D8642E7D9E085886945
:1030B000202818D0D06820F48070D0602068416942
:1030C00021F0010141612068416921F04001416125
:1030D00084F83E3025632068C16821F01001C1608A
:1030E000A06BFEF7B1F8A08DE18D401A81B219E016
:1030F000A08DE18D401A81B2E08D0028BED000295C
:10310000BCD0D06820F49070D0602068426922F072
:103110000102426184F83E3025632068C26822F0D3
:103120001002C2602046FFF71FFEF8BD05062BD532
:103130000D0629D594F83D002128F6D1A068B0F5F8
:10314000805F01D12069B0B1206A411C21622168F1
:1031500000784860E08C401E0004000CE084E4D15C
:103160002068C16821F08001C1602068C16841F019
:103170004001C160F8BD206A0088C0F308005060BB
:10318000206A801C2062E5E74006F3D54806F1D5A9
:10319000D168204621F04001D16084F83D3000F034
:1031A00036F9F8BDA73E000870B5040004D094F8C5
:1031B0003D00002510B106E0012070BD84F83C50B0
:1031C000204600F023F8242084F83D002068C168E0
:1031D00021F40051C160204600F048FF20680169D9
:1031E00021F4904101612068416921F02A01416187
:1031F0002068C16841F40051C1602564202084F832
:103200003D0084F83E00002070BD0000F0B585B0A0
:10321000002400940194029403940646454D0368EB
:103220004548022103228027AB4241D1836943F400
:1032300080438361836903F480430493836943F08B
:103240000803836180693D4D00F008000490402030
:10325000CDE90001039269462846FEF787F9CDE9DA
:103260000074694628460294FEF780F934484168A4
:1032700041F0E06141F004014160334D3148C5E95E
:103280000004C5E902472C614FF440506C61C5E968
:1032900006402846FEF7F2F808B1FDF7D3FFB56304
:1032A0000022114625206E62FEF786FD25203DE0B6
:1032B000264DAB423CD1C36943F40033C361C369BB
:1032C00003F400330493836943F00403836180694A
:1032D0001F4D00F0040004900420CDE9000103928A
:1032E00069462846FEF742F90820CDE90004694600
:1032F00028460294FEF73AF91248164D1430C5E9F3
:103300000004C5E902472C6180146C61C5E90640E0
:103310002846FEF7B3F808B1FDF794FFB563002225
:10332000114626206E62FEF747FD2620FEF736FD89
:1033300005B0F0BD0038014000100240000C014013
:1033400000000140580002406C030020004400408F
:1033500000080140B0030020704770472DE9F84392
:10336000044690F83D001F4616460D4620284CD1D5
:10337000C5B1BEB194F83C00012846D0012084F8C4
:103380003C004FF00008C4F84080212084F83D0044
:10339000FEF7EAF9A6848146E684A068B0F5805F6E
:1033A00003D004E00120BDE8F883206928B12E464F
:1033B0005FF0000584F83C800EE00026FAE78021EB
:1033C000204600F0E7FEA0B9AEB116F8010B216867
:1033D0004860E08C401EE084E08C4B464FF00002D9
:1033E00000970028EBD14FF04001204600F0D2FEBC
:1033F00030B10320D7E735F8020BC0F30800E6E749
:10340000202084F83D000020CDE70220CBE7704764
:10341000FEE701684A69D24352050FD46FF4806217
:103420004A61002140F8301F2022427381730269F3
:1034300042F00402026101730120704700207047CE
:103440002DE9F84F0446006889460B9D01689846AF
:10345000174641F4806101602068016841F4807181
:10346000016000954FF0011B0022594620460A9B3F
:1034700000F0DEF84FF4007A40B120680068C00523
:1034800001D5C4F840A00320BDE8F88F216809F0F9
:10349000FE0008612B46284920460A9A00F0FCF8F5
:1034A000F0BB20684169806900902A4620460A994D
:1034B00000F070F940B1206C04283AD1206801680E
:1034C00041F40071016034E0FEB2B8F1010F09D09F
:1034D0002168380A08612A4620460A9900F05AF9FC
:1034E0000028E8D1206806612A4620460A9900F0A3
:1034F00051F90028DFD12068016841F48071016032
:1035000000950022594620460A9B00F091F80028B9
:10351000B3D1216809F0FF0040F00100086100E02C
:1035200007E02B46044920460A9A00F0B5F8002827
:10353000AAD00120A8E70000020001002DE9F8430D
:10354000044600680D46DDE908970168984616466E
:1035500041F4807101604B4600224FF0011120467A
:10356000009700F065F848B120680068C00502D5F2
:103570004FF4007020640320BDE8F883216805F053
:10358000FE0008613B464A461549204600F084F893
:1035900088B920684169806900903A4649462046CA
:1035A00000F0F8F848B1206C042804D120680168C4
:1035B00041F4007101600120DEE7F5B2B8F1010FBE
:1035C00009D02168300A08613A464946204600F091
:1035D000E1F80028E7D1206805610020CCE7000071
:1035E0000200010070B516460D4604460DE0204667
:1035F000FFF70FFF08B1012070BD681C05D0FEF772
:10360000B3F8801BA84207D835B120684069C04391
:103610004007ECD4002070BD002044F8300F20217A
:103620006173A073216941F0200121612073E2E7F9
:103630002DE9F0471E4690460D460446C1F3074764
:10364000DDF8209008E0701C06D0FEF78DF8A0EBA6
:103650000900B0420FD876B12068012F18D08069D8
:1036600025EA00000004000C14D000214145EAD0F6
:103670000020BDE8F087002044F8300F202161735E
:10368000A073216941F02001216120730120F0E73E
:103690004069E5E70121E9E72DE9F0479A469146BF
:1036A0000E46044600254FF02008C1F3074725E0E9
:1036B00020684069C043400514D42068016841F483
:1036C0000071016021686FF480604861256384F8AF
:1036D0003D8084F83E50206C40F00400206484F863
:1036E0003C501FE0B9F1FF3F08D0FEF73DF8A0EBDA
:1036F0000A0149450CD8B9F1000F09D02068012F03
:1037000013D0806926EA00000004000C0BD0CFE73C
:1037100044F8305F84F80D80A573206940F02000E4
:10372000206125730120BDE8F0874069EAE72DE9B3
:10373000F041002590460E460446202717E04069D8
:10374000C043C0060CD454F8301B6FF01000486121
:1037500044F810596777A577206A2062257717E02B
:10376000FEF702F8A0EB0800B04208D83EB120688E
:103770004169C9434906E2D40020BDE8F08144F81C
:10378000305F6773A573206940F0200020612573C6
:103790000120F2E770B516460D4604460DE02046BE
:1037A000FFF737FE08B1012070BD681C05D0FDF79A
:1037B000DBFF801BA84207D835B120684069C043B1
:1037C0000006ECD4002070BD002044F8300F20210A
:1037D0006173A073216941F0200121612073E2E748
:1037E0002DE9F04385B000242A4800940194029406
:1037F0000394816941F010018161816901F0100138
:103800000491816941F020018161816901F0200109
:103810000491816941F004018161816901F0040131
:103820000491816941F0080181618069DFF8688055
:1038300000F008004FF4005504900022294640464D
:10384000FDF78CFFDFF854904FF410470022394603
:103850004846FDF783FF0095022601250396CDE932
:10386000015469464046FDF781FEE80200900C488D
:10387000CDE9010469464846FDF778FE00970396B6
:10388000CDE9015469464846FDF770FE05B0BDE834
:10389000F0830000001002400010014000080140C9
:1038A000000011100F4810B50D4901604FF48271EE
:1038B000416000218160C1604FF400720161C0E984
:1038C00005121822C0E90721416281620A21C16202
:1038D000FEF720FD002801D072B6FEE710BD000003
:1038E000003001406C01002010B596B000240F9408
:1038F00010941194129413941C2168461494FCF7AC
:1039000028FC202107A8FCF724FC2C482A49C0E900
:10391000001440F6B831C0E9024104614461846199
:10392000FEF706FE08B172B6FEE74FF480500F9026
:103930000FA92248FEF78CFE08B172B6FEE71F48B9
:10394000FFF704F908B172B6FEE7139413A91B48F8
:103950001494FEF7B9FD08B172B6FEE76020CDE918
:1039600000040294039404940594002269461348C9
:103970000694FFF788F808B172B6FEE7042269469C
:103980000E48FFF780F808B172B6FEE70794089476
:1039900009944FF400500A94CDE90B4007A9074859
:1039A0000E94FEF767FD08B172B6FEE70348FFF715
:1039B00033F816B010BD0000002C0140C4010020F7
:1039C00010B58EB000240794089409940A940B94BF
:1039D0001C2168460C94FCF7BCFB1E484FF080414C
:1039E0000160D721C0E9011440F2E731C0E90314B6
:1039F0008461FEF79DFD08B172B6FEE74FF480507A
:103A0000079007A91348FEF723FE08B172B6FEE738
:103A10001048FFF79BF808B172B6FEE70B940BA9AC
:103A20000C480C94FEF750FD08B172B6FEE760201A
:103A3000CDE9000402940422694606480494FFF785
:103A400022F808B172B6FEE70248FEF7E5FF0EB0B5
:103A500010BD00000C02002010B58CB02421684677
:103A6000FCF777FB00241548099413490A94C0E930
:103A700000144FF6FF71C0E9024104618461012026
:103A8000CDE90004CDE902040494CDE90540079492
:103A900069460A480894FEF746FE08B172B6FEE78A
:103AA000099409A905480A94FEF70EFD002801D0E3
:103AB00072B6FEE70CB010BD0004004054020020B6
:103AC00010B586B000241748009401940294039422
:103AD00004941349059401604FF47A71C0E901140C
:103AE0004FF46161C0E903148461FEF721FD08B160
:103AF00072B6FEE74FF48050009069460948FEF721
:103B0000A7FD08B172B6FEE7049404A90548059420
:103B1000FEF7DAFC002801D072B6FEE706B010BD51
:103B2000000800409C020020FEE7FEE72DE9F05F60
:103B30000B46064611461846FCF7A6FD2B4C0546DB
:103B40002946606060698346FCF74CFD3146FCF70E
:103B5000A1FD8246A06001215846FCF70BFE2946D4
:103B6000FCF795FDA169FCF73DFD07462061204863
:103B700031460068FCF7C0FD3946FCF78BFDFCF7C9
:103B8000DFFF804689465046FCF7DAFF07461948B2
:103B90000E460068FCF7D4FF4FF0FF32FCF77EFFC3
:103BA0003A463346FCF799FE07460E4659462846E4
:103BB000FCF76AFD10490968FCF76CFD216AFCF707
:103BC00011FDFCF7BDFF3A463346FCF7DFFD4246E8
:103BD0004B46FCF7DBFDFCF7C6FFC4F80CA06561A3
:103BE000C4E906502062BDE8F09F00006400002098
:103BF000500000204C000020480000207047704713
:103C0000FEF774B830B58FB028216846FCF7A1FAEA
:103C100014210AA8FCF79DFA01210804CDE900103F
:103C20000024029402250491CDE907504FF4E010DE
:103C300009906846FEF7DEF908B172B6FEE70F207C
:103C4000CDE90A054FF48060CDE90C4002210AA8B5
:103C50000E94FEF7E3F8002801D072B6FEE70FB02D
:103C600030BD70470148FEF723BE00009C020020D3
:103C7000F0B50268164B174C174D4FF0804798422D
:103C800005D0B84203D0A04201D0A84203D122F00F
:103C900070064A683243984205D0B84203D0A04229
:103CA00001D0A84203D122F44074CA6822434C696F
:103CB00022F08002224302608A68C2620A6882623D
:103CC000984201D10969016301214161F0BD000001
:103CD000002C0140000400400008004010B501F035
:103CE0001F030121046A99408C430462016A9A40CF
:103CF0001143016210BD10B5846842EA032224F426
:103D00007F440A432243826010BD826822F0700221
:103D10000A4342F0070181607047000030B5026A33
:103D200022F001020262026A4368846924F073058A
:103D30000C682C4322F002058A682A430A4DA842E7
:103D40000BD122F00805CA6823F440732A434D6959
:103D500022F004021D438B692B4343608461496850
:103D60004163026230BD0000002C014030B5026AA0
:103D700022F010020262026A436884690D6824F42A
:103D8000E64444EA05248D6822F0200242EA051246
:103D90000B4DA8420ED1CD6822F0800242EA0512F6
:103DA0004D6923F4406343EA85038D6922F04002A4
:103DB00043EA85034360846149688163026230BDE0
:103DC000002C014030B5026A22F480720262036A5C
:103DD0004268C46923F4007324F073050C682C4313
:103DE0008D6843EA05230C4DA8420ED1CD6823F41B
:103DF000006343EA05234D6922F4405242EA05126A
:103E00008D6923F4806342EA05124260C461496807
:103E1000C163036230BD0000002C014030B5026A6E
:103E200022F480520262046A4268C3690D6823F476
:103E3000E64343EA05238D6824F4005444EA05343C
:103E4000064DA84204D14D6922F4804242EA85120F
:103E50004260C36149680164046230BD002C0140C6
:103E600010B5036A046A24F001040462846924F032
:103E7000F00444EA021423F00A020A438461026255
:103E800010BD10B5036A23F0100303628369046A4E
:103E900023F4704343EA023224F0A00343EA011101
:103EA0008261016210BD10B5406A0021C185C184E4
:103EB000FFF772F810BD70B5446A2068406994F845
:103EC0003D10C0F3C0100025212904D118B1E584AC
:103ED000204600F067F82068406994F83E10C0F36F
:103EE0008010222904D118B1E585204600F042F85F
:103EF000206C40F0100020642046FFF74DF870BDA4
:103F000010B50146406A0968096889061BD400217A
:103F1000C1850168CA6822F48072CA6001684A6972
:103F200022F001024A6101684A6922F040024A61B6
:103F3000202180F83E10016B012904D10168CA6874
:103F400022F01002CA60016B012902D0FFF704FAC7
:103F500010BD818DFEF708FF10BD10B5406A016BE2
:103F6000012902D0FFF7F9F910BD818D4908FEF74C
:103F7000FBFE10BD0168CA6822F49072CA60016835
:103F80004A6922F001024A61016B012904D10168EA
:103F9000CA6822F01002CA60202180F83E10002179
:103FA000016370470168CA6822F0C002CA6020211C
:103FB00080F83D10704708B590F83E10222901D0D6
:103FC000022008BD82684FF480539A4201D10169F2
:103FD00021B1816A9A421BD04AB10AE00268816A23
:103FE0005268C2F308020A80816A891C08E00269EB
:103FF00072B10268526802F07F020A70816A491C3D
:104000008162C18D491E0904090CC18503D019E0E4
:1040100002685268F1E70168CA6822F02002CA60AB
:104020000168CA6822F48072CA6001684A6922F095
:1040300001024A61202180F83E10016B012903D062
:10404000FFF78AF9002008BD002101630168CA68F2
:1040500022F01002CA6001680A68D20602D50A6816
:1040600049680091818DFEF77FFEEBE770B504464D
:1040700000680169E26821F440511143016121693E
:10408000A0680843616908432168CA6841F20C636B
:104090009A430243CA6020684169A26921F44071D1
:1040A000114341611E492068884202D1FDF75CFF3F
:1040B00001E0FDF749FF00EBC00101EB0012606871
:1040C00064218000B2FBF0F3B3FBF1F36FF018064C
:1040D0007343B2FBF0F5B2FBF0F605EB8305322338
:1040E00003EB0515B5FBF1F5B6FBF1F605F0F005B0
:1040F00005EB0615B2FBF0F6B2FBF0F0B0FBF1F009
:104100006FF01802504306EB800003EB0010B0FB89
:10411000F1F0216800F00F002844886070BD0000B5
:104120000038014038B58162828500251346044677
:104130000564222084F83E00A26B13489062A26BB3
:104140001248D062A26B12481063A06B0A46456306
:104150002168A06B091DFDF7BFF92068016841685F
:10416000009184F83C50C16841F48071C1602068BE
:10417000416941F0010141612068416941F040011C
:104180004161002038BD0000013F00085B3F00088E
:10419000B73E00082DE9F041984617460E46044602
:1041A000069D1DE0681C1BD02DB1FDF7DDFAA0EBCC
:1041B0000800A84214D92068C16821F4D071C160F8
:1041C0002068416921F001014161202084F83D000F
:1041D00084F83E00002084F83C000320BDE8F08114
:1041E0002068006836EA000004D00020B842D9D028
:1041F0000020F3E70120F9E70148FEF7CFBE0000F9
:10420000E40200200148FEF7C9BE00002803002098
:10421000FEE700000FB4084B10B504A902AA0398EA
:1042200000F000F9044602A9002000F092FC2046AC
:1042300010BC5DF814FB0000534B0008410008025D
:1042400018BF04200A0E18BF40F001004FF07F4253
:1042500032EA010108BF40F00200012808BF052032
:1042600070470907090E002804DB00F1E02080F800
:104270000014704700F00F0000F1E02080F8141DDA
:104280007047FCF7AFB96FF05E010807FCF772BA30
:1042900002E008C8121F08C1002AFAD1704770470F
:1042A000002001E001C1121F002AFBD1704700006D
:1042B0002DE9FF5FDDE90220010DDDF838B0024392
:1042C00018D044F61050A1F2FF3141430D140F985D
:1042D000012820D0A5EB0B00401C5FEA000A4FF03C
:1042E0000004474EDFF81C91A046504616D5CAF18F
:1042F000000728E00F98012443A2012808D00021DC
:1043000000980F9BC0E90021C0E90243BDE8FF9F70
:104310006FEA0B01F4E7CBF10000DEE7074612E09D
:10432000F80707D02246334640464946FCF7D5FAFF
:10433000804689462246334610461946FCF7CDFA98
:1043400004460E467F10002FEAD1DDE90201BAF1E2
:10435000000F42464B4602DAFCF7BFFA01E0FCF7D9
:104360002EFB04460E460022284BFCF76DFD03D8B9
:104370004FF0FF30014607E00022254B2046314632
:10438000FCF704FAFCF748FD102409E0002C0ADBD6
:104390000A220023FCF719FC019B30321A55641ED7
:1043A00050EA0102F2D1641C019AC4F111031444D1
:1043B0000F9A012A03D0012208430DD10AE00843D5
:1043C00004D000204FF0110B0F9080E7A3EB0B05FA
:1043D0006D1E0DE05B4504DD4FF0000205F10105A7
:1043E00004E003DA4FF00002A5F10105002AECD049
:1043F00000980F99C0E90231C0E9004586E7000046
:10440000000024400000F03F300000000000F043B6
:104410000000E03F30380A2801D201207047002018
:10442000704700002DE9FF4F95B09B468946064630
:1044300000250FE2252877D100242746F84A0121DC
:10444000059400E0044316F8013F203B01FA03F015
:104450001042F7D130782A2811D06FF02F0330782E
:10446000A0F13002092A16D8059A44F0020402EBA2
:10447000820203EB42021044761C0590EFE759F8E4
:10448000042B0592002A03DA504244F400540590AC
:1044900044F00204761C30782E2816D116F8010F4D
:1044A00044F004042A280DD06FF02F023078A0F1D8
:1044B0003003092B09D807EB870302EB4303C71826
:1044C000761CF3E759F8047B761C30786C280FD003
:1044D00006DC4C2817D068280DD06A2814D104E0D7
:1044E000742810D07A280FD10DE044F400140AE0AB
:1044F00044F4801401E044F440147278824202D102
:1045000004F58014761C761C307866280BD013DCFA
:10451000582877D009DC002875D04528F6D04628E1
:10452000F4D047281AD19DE118E0632835D06428DB
:1045300079D0652812D195E1702873D008DC6728FE
:10454000F1D069286FD06E280DD06F2806D1B5E064
:1045500073282CD0752875D0782874D05A461799AE
:1045600090476D1C75E1C4F30250022809D003285E
:104570000DD0D9F8001004280DD00D6009F1040900
:1045800067E1D9F80010EA17C1E90052F6E7D9F857
:1045900000100D80F2E70D70F0E719F8041B8DF89C
:1045A000001000208DF80100EA46012003E059F8D0
:1045B00004AB4FF0FF3061074FF0000102D40DE073
:1045C00008F101018846B9420FDA8045F8DB1AF894
:1045D00008100029F4D108E008F101018846814261
:1045E000FADB1AF808100029F6D105985B46A0EB13
:1045F000080721463846179A00F094FA284400EB41
:10460000080507E04DE029E10DE01AF8010B5A46D4
:1046100017999047B8F10108F7D25B462146384612
:10462000179A13E142E00A220092C4F302524FF0BB
:10463000000A022A08D059F804CB032A4FEAEC7189
:104640000AD00DE029E02AE009F1070121F0070274
:10465000F2E802C1914609E00FFA8CFC4FEAEC71D6
:10466000042A03D14FFA8CFC4FEAEC71002907DAD7
:104670000A460021DCF1000C61EB02012D2202E070
:10468000220504D52B228DF80420012203E0E20745
:1046900001D02022F7E7904659E00A2102E01022DB
:1046A0000DE010214FF0000A00910BE010224FF0B6
:1046B000000A44F004040827009203E008224FF0A7
:1046C000000A0092C4F30252022A05D059F804CB22
:1046D0000021032A08D009E009F1070121F00702AF
:1046E000F2E802C1914605E01FFA8CFC042A01D1D0
:1046F0000CF0FF0C4FF00008220728D5702806D0D8
:10470000009B83F0100353EA0A0305D00EE0402219
:104710008DF80420012208E05CEA010206D0302274
:104720008DF804208DF8050002229046009B83F04E
:10473000080353EA0A030AD15CEA010201D16207C5
:1047400005D530228DF804204FF001087F1E58282F
:1047500004D034A003900EA802900DE036A0F9E733
:1047600053466046009AFCF730FA84460398825C10
:104770000298401E029002705CEA0100F0D102989B
:1047800006A9081A00F1200A600702D524F4803433
:1047900000E00127574502DDA7EB0A0000E00020FA
:1047A00000EB0A01009005984144401A0590E0038F
:1047B00006D45B462146179A059800F0B3F90544E4
:1047C000002706E001A85A46C05D179990476D1C66
:1047D0007F1C4745F6DBE0030CD55B462146179A64
:1047E000059800F09FF9054404E030205A461799D7
:1047F00090476D1C0099481E00900029F5DC08E0E8
:10480000029802995A460078491C029117999047DC
:104810006D1CBAF10001AAF1010AF1DC65E10000AA
:104820000928010030313233343536373839616286
:10483000636465660000000030313233343536374A
:1048400038394142434445460000000000F058F921
:104850000544761C307800287FF4ECAD19B028466A
:10486000BDE8F08F620700D4062709F1070222F0A5
:10487000070CFCE80223E14603F000485FEA080C5D
:1048800002D00FF2702C0DE05FEA045C02D50FF24B
:10489000682C07E05FEAC47C02D00FF2602C01E0D4
:1048A000AFF2700C4FF0FF3823F00043CDF850C04A
:1048B00065280CD006DC452809D046281DD047289D
:1048C0003DD13DE0662818D067287ED138E0002130
:1048D000112F01DB112000E0781CCDE9000106A9B1
:1048E0000EA8FFF7E5FCDDE90F010E9A0391002108
:1048F000009207F1010A04914DE04FF0004000974B
:10490000CDE9011006A90EA8FFF7D2FCDDE90F02E0
:1049100003920E9B11990022DDF80CA000930492E3
:1049200011B9791C00EB010AB7EB0A0004D4C0F1FD
:10493000FF3007F1010A0490AAEB0700019044E060
:10494000012F00DA01270021112F01DD112000E0E5
:104950003846CDE9000106A90EA8FFF7A9FCDDE95C
:104960000F010E9A0391002104910092BA4621078B
:104970000CD40399514500DA8A46BAF1010F05DDDE
:10498000009AAAF10101515C302908D0B84202DA3C
:1049900010F1040F06DA0121CDE9011015E0AAF1AA
:1049A0000101E9E7002805DC049901440491AAEB20
:1049B000000102E0411C514500DD8A460499401A7D
:1049C000401C01904FF000400290200704D4019851
:1049D000504501DBCDF8048000208DF84F0002988F
:1049E0000DF14F07B0F1004F25D02B200E9002980B
:1049F0004FF0020800280CDA404202902D200E9061
:104A000007E00A210298FCF7CAF83031029007F853
:104A1000011DB8F10001A8F10108F2DC029800289C
:104A2000EFD1791E0E980870307800F0200040F029
:104A3000450007F8020D12A8C01B00F107081498E2
:104A4000007800B1012000EB0A01019801EBE07150
:104A500005984144401A401E0590E00306D45B4689
:104A60002146179A059800F05DF8054414980078DF
:104A700018B15A46179990476D1CE00324D55B4640
:104A80002146179A059800F04DF805441CE004985B
:104A9000002807DBDDE90301884203DD0098405C64
:104AA000179901E0179930205A469047049805F16C
:104AB0000105401C04900198401E019004D12E2055
:104AC0005A46179990476D1CBAF10001AAF1010AE4
:104AD000DDDC05E017F8010B5A46179990476D1C6D
:104AE000B8F10001A8F10108F4DC5B462146179AF1
:104AF0000598ABE62D0000002B0000002000000010
:104B00002DE9F041044600251E461746880404D4CA
:104B100005E039462020B0476D1C641EF9D52846B3
:104B2000BDE8F0812DE9F041044600251E4690467F
:104B3000C80301D5302700E02027880404D505E00C
:104B400041463846B0476D1C641EF9D52846BDE87D
:104B5000F0810A68531C0B60107070472DE9F04714
:104B60004FF0684202EB40030C460546B3F1654F37
:104B70003CBF02EB4102B2F1654F7CD2C0F3C75398
:104B8000C1F3C7529A1A1B2A06DD10F0004F14BF5A
:104B900076487748BDE8F08712F11A0F17DA11F05E
:104BA000004F06D010F0004F0CBF72487248BDE8AD
:104BB000F08721462846FBF79FFD0446FFF73EFBA2
:104BC000042808BFFFF75FFB2046BDE8F0874200DE
:104BD000B2EB410F25D910F0004F19BF674F684E57
:104BE000684F694E224685F0004415460A4680F01B
:104BF000004110460A1A5200B2F1807F40D248406C
:104C00006249DFF88CA110F0004F18D04FF03F48F8
:104C10003846FBF739FD074651463046FBF734FD71
:104C200017E011F0004F04BF00263746E2D010F025
:104C3000004F19BF574F584E584F594EDAE74FF0B3
:104C40007C583846FBF7CEFC074651463046FBF70A
:104C5000C9FC064641462846FBF71CFD2146FBF7EA
:104C6000C1FC824621464046FBF714FD2946FBF76E
:104C70000EFD514600E037E0FBF73EFD044604E040
:104C800021462846FBF738FD04460146FBF702FDA6
:104C900080464449FBF7FEFC4349FBF7A3FC414631
:104CA000FBF7F8FC4149FBF79DFC4146FBF7F2FCA2
:104CB0003F49FBF797FC4146FBF7ECFC3D49FBF70E
:104CC00091FC054641462046FBF7E4FC2946FBF7EC
:104CD000E1FC3146FBF786FC2146FBF783FC3946B5
:104CE000BDE8F047FBF77EBC4FF07F42B2EB400FD0
:104CF00028BFB2EB410F03D2BDE8F047FFF7C1BABE
:104D000040EA01035B0008BF44F0FF410AD0B2EB68
:104D1000400F08BFB2EB410F06D125F0804024F0D0
:104D2000804105460C4629E7B2EB400F12BF5FEA0F
:104D3000410245F0FF4004F000413FF41FAF4A003C
:104D400092EA40033FF51AAF002AACBF4FF09F46EE
:104D50004FF03E563146FBF79DFC05463146204656
:104D6000FBF798FC04462846214607E7DB0FC9BF3E
:104D7000DB0FC93FDB0F4940DB0F49C00000C9BF53
:104D800022AAFDB90000C93F22AAFD390060ED3E0C
:104D9000C30ACE37000049C022AA7DBA00004940AC
:104DA00022AA7D3A2DAD65BD8FB8D53D0FB511BE98
:104DB00061C84C3EA8AAAABE7FB5012403ADCDE9C7
:104DC000005464268DF80C4023460B221A21084813
:104DD0000296FCF7BBFECDE900548DF80C40012390
:104DE00009221A2102480296FCF7B0FE7FBD00009E
:104DF0001801002070B50446188820805888088063
:104E000098881080B1F90000FBF75FFE0546B4F901
:104E10000000FBF75AFE2946FFF7A0FE0949FBF701
:104E200039FCFBF78DFE084A084BFBF7C8FDFBF782
:104E30009AFE10F1FF4F04D3BDE870400449FBF720
:104E4000D1BB70BD000034431F85EB51B81E094033
:104E50000000B44308B5FCF751FFFEF7D3FE4FF452
:104E60007A70FCF771FBFEF7BBFC5148416941F0D9
:104E7000010141614069002200F0010000901146EB
:104E80000F20FCF799FF0F20FCF788FF0022114646
:104E90001020FCF791FF1020FCF780FF46484549A1
:104EA000002401604549C0E901144FF48041C0E984
:104EB000034144618461C4610462FCF75BFC08B196
:104EC00072B6FEE73F483E494FF4E1350160C0E964
:104ED00001540C26C460C0E904468461C461FEF735
:104EE00063F908B172B6FEE73648374944300160CD
:104EF000C0E90154C460C0E904468461C461FEF79E
:104F000053F908B172B6FEE7FEF7EEFCFEF7A4FD1A
:104F1000FEF7D6FDFEF754FDFEF7C4FC2648FCF76D
:104F200029FC28484838FDF767FB264800219038BF
:104F3000FDF776FC234804219038FDF771FC1E48EC
:104F40000021AC30FDF732FE1B480421AC30FDF7E8
:104F50002DFE1C480421D838FDF728FEFFF72CFF52
:104F600001221A491748FDF7DAFE16488830006812
:104F7000016821F0040101600F493222323901F247
:104F80004220FDF7CCFE0F48CC300068016821F0CC
:104F9000040101600E480460001D04600B4C241FD6
:104FA000FCF7E2FB2062FCF7DFFB6062F8E7000041
:104FB000001002400054004018010020A0860100AB
:104FC00000380140E40200200044004004000020BA
:104FD000342C014070B50C4606460F49FBF78CFB9C
:104FE000FBF781FD054664214843FBF76EFD314622
:104FF000FBF74DFB0949FBF77FFB06462846FBF70D
:1050000064FD3146FBF7EEFA532C01D0572C01D149
:1050100080F0004070BD00000000C84200007042F7
:105020000EB50622CDE90002C8210291012300221B
:105030001A210248FCF762FC0EBD00001801002096
:10504000044800218161416141600161C16081606A
:105050000162704764000020303905290FD2DFE873
:1050600001F00305070A0C00054907E0054905E0C2
:105070004FF0814102E0044900E0044901607047BB
:105080000000404000006040000090409A99994024
:1050900000000000000000000102030406070809E8
:1050A0000000000001020304DDDDDDDDDCBBBBDD53
:1050B000DDDDDDDDDDDDDDDD9888888888888888B8
:1050C00077777777778888888555555666666666D8
:1050D00066666666666888888333333222222222B7
:1050E000222222222228888D085100080000002058
:1050F000B400000090420008BC510008B400002039
:1051000044070000A0420008000101000000000068
:10511000000000000000000000002040000000002F
:10512000000000000000000000000000000000007F
:10513000000000000000000000000000000000006F
:10514000000000000000000000000000000000005F
:105150000000A0419A99993F000000000100000062
:1051600010000000000000000024F4000000000017
:10517000000000000000000000000000000000002F
:10518000000000000000000000000000000000001F
:10519000B5620600140001000000D008000000C243
:1051A00001000700030000000000C07EB562060891
:0C51B00006006400010001007A120000FB
:04000005080000ED02
:00000001FF
