:020000040800F2
:10000000900600200101000873250008E71F000882
:1000100071250008ED0500084D29000800000000CA
:10002000000000000000000000000000772500082C
:100030002706000800000000752500087925000843
:100040001B0100081B0100081B0100081B01000820
:100050001B0100081B0100081B0100081B01000810
:100060001B0100081B0100081B0100081B01000800
:100070001B0100081B0100081B0100081B010008F0
:10008000F10500081B0100081B0100081B01000806
:100090001B0100081B0100081B0100081B010008D0
:1000A0001B0100081B0100081B0100081B010008C0
:1000B000DD2500081B0100081B0100081B010008CA
:1000C0001B0100081B0100081B0100081B010008A0
:1000D0001B0100081B0100081B0100081B01000890
:1000E0001B0100081B0100081B010008DFF80CD0F1
:1000F00000F06AFA004800476D2D000890060020C5
:100100000648804706480047FEE7FEE7FEE7FEE7B1
:10011000FEE7FEE7FEE7FEE7FEE7FEE7DB25000879
:10012000ED000008202A04DB203A21FA02F0002129
:10013000704721FA02F3D040C2F1200291400843F7
:100140001946704740EA01039B0703D009E008C93C
:10015000121F08C0042AFAD203E011F8013B00F88C
:10016000013B521EF9D27047D2B201E000F8012BD8
:10017000491EFBD270470022F6E710B513460A4627
:1001800004461946FFF7F0FF204610BDF0B480EAA0
:100190000102D40F4200B2EB410F02D202460846E0
:1001A00011464A0042D0C30DDDB2C1F3C752AD1AA9
:1001B000202D35DAC1F3160141F4000204B1524298
:1001C000C5F1200602FA06F12A411044B3EBD05FD4
:1001D00023D0C4B1012DA0EBC35009DCF0BC4FF01B
:1001E000004202EAC352DBB200F5000000F061B940
:1001F000400000F1807000EBC350A0F1807040EA35
:10020000D170490009E0490841EAC071A0EBC35030
:1002100000F50000400800EBC350F0BC00F040B90E
:100220006142012202EB4101001BF6E7F0BC70477E
:1002300081F00041AAE780F00040A7E780EA0102D0
:1002400010B502F00043400022D04A001FD0010E3A
:1002500001EB1261C0F35600C2F3560240F40000F5
:1002600042F40002A0FB022000047F39140400D0F5
:10027000401C50EA124001D44000491EC2B20C0694
:1002800004EBD010401C4008802A02D003E000207C
:1002900010BD20F00100002900DA0020184310BD35
:1002A00030B480EA010202F0004530F0004221F053
:1002B000004013D090B1C30DD40DC2F31601C0F3AA
:1002C0001600E41A41F4000140F400027D3491422A
:1002D00001D3641C00E04900002C02DA30BC00208D
:1002E00070474FF400000023914201D3891A034361
:1002F00040084FEA4101F7D151B1914202D14FF08C
:10030000004105E002D24FF0010101E06FF0010170
:1003100003EBC450284430BC00F0C2B8420005D002
:10032000C0F3C7525242914201DC0020704700EBFB
:10033000C15070472DE9F04D81EA030404F0004BF1
:1003400021F0004514464FF0000A23F0004150EA26
:10035000050220D054EA01021DD0C5F30A57024617
:10036000C5F31303C1F31300C1F30A5640F480151B
:1003700043F48013A7EB0608101BD64608F2FD389D
:1003800073EB050002D308F1010801E092185B410C
:10039000B8F1000F03DA00200146BDE8F08D00201F
:1003A0004FF48011064684460EE0171B73EB0507D9
:1003B00005D3121B63EB050306434CEA010C490805
:1003C0004FEA300092185B4150EA0107EDD152EA42
:1003D000030012D082EA040083EA0501084305D035
:1003E000101BAB4106D20122002306E000224FF091
:1003F000004302E06FF0010253101AEB06004CEBD1
:10040000085110EB0A0041EB0B01BDE8F04D00F084
:100410007EB8C10F80EAE0700844CA079623002125
:1004200000F047B800F0004230F000400AD0C10DA3
:1004300001F56071C0F3160042EA0151C20840079D
:100440001143704700200146704701F0004330B46B
:1004500021F0004150EA010206D00A0DA2F56072B7
:10046000C1F31301002A02DC30BC00207047440FA6
:1004700044EAC104C100E01830BC00EBC25000F0F7
:100480000FB8202A04DB203A00FA02F1002070475E
:100490009140C2F1200320FA03F3194390407047C2
:1004A0000029A8BF7047401C490008BF20F0010088
:1004B000704710B4B0FA80FC00FA0CF050EA010466
:1004C00004BF10BC704749B1CCF1200421FA04F4F8
:1004D00011FA0CF118BF012121430843A3EB0C01D1
:1004E000CB1D4FEA00614FEA102042BF002010BC34
:1004F000704700EBC35010440029A4BF10BC7047E4
:10050000401C490008BF20F0010010BC704710B526
:10051000141E73F1000408DA401C41F10001921826
:100520005B411A4301D120F0010010BD2DE9F04DCF
:1005300092469B4611B1B1FA81F202E0B0FA80F224
:1005400020329046FFF79DFF04460F4640EA0A001E
:1005500041EA0B0153465A46084313D0114653EA69
:10056000010019D0C8F140025046FFF7DBFD0546F7
:100570000E46504659464246FFF783FF084305D0D2
:10058000012004E020463946BDE8F08D00200543F7
:1005900046EAE0762C4337430A986305E40AA0EB69
:1005A00008000022FD0A44EA47540A3002D5002020
:1005B0000146E9E7010510196941DDE9084500191F
:1005C0006941BDE8F04DA2E7064C074D06E0E06842
:1005D00040F0010394E8070098471034AC42F6D38A
:1005E000FFF788FD182F0008382F0008FEE70000ED
:1005F000014800F075B800004802002030B590F8BE
:1006000040500124AC40C56B6C6004686360436873
:10061000102B036803D099600068C26030BD9A60F7
:100620000068C16030BD704772B6FEE710B502F0D9
:1006300069FB642000F064F902F07FFB642000F0A5
:100640005FF902F05FFB642000F05AF902F075FBDD
:10065000642000F055F902F0E1FA642000F050F94E
:1006600002F0F0FA642000F04BF902F066FB64201F
:1006700000F046F902F0DCFABDE81040642000F01A
:100680003FB9000010B528B301680A6822F00102E2
:100690000A6002680021116002685160026891607E
:1006A0000268D1600C4B026801241A441423B2FB87
:1006B000F3F29300094AC0E90F239C405460816221
:1006C000C16201634163816380F8211080F82010CA
:1006D000002010BD012010BDF8FFFDBF000002404A
:1006E0002DE9F05FC16B0C6801680B68D0F840C061
:1006F000042202FA0CF2494DDFF824A1494E4A4F78
:10070000DFF828B1DFF828E122422CD05A072AD599
:100710000A68920603D40A6822F004020A6001689B
:10072000A94201D1042219E0514501D1402215E02E
:10073000B14202D14FF4806210E0B94202D14FF4CD
:1007400080420BE0594502D14FF4802206E071450A
:1007500002D14FF4800201E04FF080622F49083946
:100760004A60C16A3BE04FF0020808FA0CF818EA48
:10077000040F4FF000094FF0010235D05FEA837893
:1007800032D50B689B0605D40B6823F00A030B6077
:1007900080F821200168A94201D1022219E05145C7
:1007A00001D1202215E0B14202D14FF4007210E0D5
:1007B000B94202D14FF400520BE0594502D14FF437
:1007C000003206E0714502D14FF4001201E04FF013
:1007D0000072124908394A6080F82090816A002925
:1007E0001AD0BDE8F05F0847082505FA0CF5254248
:1007F00012D01B0710D50B6823F00E030B6090F886
:100800004010C36B02FA01F15960826380F8212025
:1008100080F82090016BE2E7BDE8F09F08000240FD
:100820001C000240300002404400024058000240D8
:100830006C00024030B528B308C81349142219448B
:10084000B1FBF2F18900C163104981630221417754
:100850001A6843F6F0718A43D0E900142143D0E9C5
:1008600002452C432143046921434469214384699F
:10087000214311431960002141630122427701772E
:10088000084630BD012030BDF8FFFDBF000002402A
:1008900070B5044690F82000002501280CD00120F6
:1008A00084F8200094F821600020012E06D084F8FE
:1008B00020000225284670BD022070BD022684F863
:1008C0002160A0632068066826F0010606602046C5
:1008D000FFF794FEE06A00282068016802D041F02A
:1008E0000E0106E021F0040101602068016841F07A
:1008F0000A0101602068016841F001010160D9E747
:1009000070B5044600F08AF90546601C02D0044820
:100910000078044400F082F9401BA042FAD370BD75
:10092000240000202DE9F0430023374F0F2566E017
:1009300001229A400A4060D023F00304E619D6F859
:1009400008809C074FEA147C05FA0CF909EA0804B0
:10095000DFF8B880404502D14FF0000816E0DFF81C
:10096000B080404502D14FF001080FE0DFF8A480CD
:10097000404502D14FF0020808E0DFF89C80404576
:1009800002D14FF0030801E04FF0040808FA0CF818
:10099000A04515D1D6F808C02CEA090CC6F808C045
:1009A0001E4E346894433460341D26689643266096
:1009B000241D266896432660241D266896432660DB
:1009C000FF2A01D8064601E000F104064FEA83043D
:1009D00001D9A4F12004D6F800C005FA04F82CEAE5
:1009E000080C4FF0040808FA04F84CEA080CC6F8A2
:1009F00000C0C46824EA0204C46003F1010331FAB0
:100A000003F295D1BDE8F0830000014000080140E9
:100A1000000C01400010014000140140000401409E
:100A20002DE9F84FDFF8B891002409F1040A0AF122
:100A3000040B23460F270BF1040EC9E00125A54046
:100A40002A40AA427DD1674ED1F804C0ACEB06081B
:100A5000B44532D014DCBCF1030F3AD009DCBCF150
:100A6000000F2AD0BCF1010F1CD0BCF1020F31D114
:100A70001DE0BCF1110F17D0BCF1120F2AD119E003
:100A8000B8F5881F19D006DCB8F5803F15D0B8F549
:100A9000801F1FD111E0B8F5001F0ED0B8F5041F5C
:100AA00018D10AE0CB6815E0CB681B1D12E0CB68BB
:100AB00008330FE0CB680C330CE08B682BB1012BB3
:100AC0004FF0080303D0456104E0042302E0056110
:100AD00000E00023FF2A01D8064601E000F10406E9
:100AE0004FEA840501D9A5F12005D6F8008007FA60
:100AF00005FC28EA0C0803FA05F548EA0508C6F8DB
:100B000000804D68ED0062D5374DAE6946F00106B4
:100B1000AE61AD6924F0030605F001050095334D83
:100B200006EB050CDCF80850A607360F07FA06F8A6
:100B300025EA0805DFF8B880404503D14FF00008EA
:100B400017E044E0DFF8AC80404502D14FF00108E7
:100B50000FE0DFF8A480404502D14FF0020808E022
:100B6000DFF89880404502D14FF0030801E04FF0D4
:100B7000040808FA06F848EA0508CCF808804D6829
:100B8000D9F80060ED034D4601D5164300E09643C9
:100B90002E604D68DAF80060AD03554601D5164366
:100BA00000E096432E604D68DBF80060ED025D4684
:100BB00001D5164300E096432E604D68DEF80060D4
:100BC000AD02754601D5164300E096432E60641CC5
:100BD0000D682A46E5407FF431AFBDE8F88F00008C
:100BE000000401400000111000100240000001400C
:100BF00000080140000C01400010014000140140B9
:100C0000C26821EA02030A4043EA024101617047D7
:100C10000AB1016170470904FBE7000001488068E0
:100C2000704700002400002070B5040025D094F81F
:100C30003D00002520B984F83C50204600F078FAA9
:100C4000242084F83D002068016821F00101016042
:100C50002068016841F4004101602068016821F4C6
:100C60000041016000F0CAFB4D4A6168914201D821
:100C70004C4900E04C49884201D2012070BD4B49EB
:100C80002368B0FBF1F15E6826F03F060E435E601C
:100C90006368934206D94FF4967359434FF47A73BD
:100CA000B1FBF3F12368491C1E6A26F03F0631436D
:100CB00019626168914210D84900401EB0FBF1F200
:100CC000521CC2F30B02042A01D2042022E0B0FB22
:100CD000F1F0401CC0F30B001CE0A268F2B301EB82
:100CE000C10303EB0116431EB3FBF6F35B1C43F495
:100CF00080431B0549D092B301EBC10202EB011105
:100D0000401EB0FBF1F0401CC0F30B0040F48040EB
:100D100040F400402168CA694CF6FF739A431043BF
:100D2000C861D4E9071001432068026822F0C002BC
:100D300011430160D4E9030101432068826848F24D
:100D4000FF339A4311438160D4E9050108432168C8
:100D5000CA6822F0FF021043C86001E00EE016E00E
:100D60002068016841F0010101602564202084F8B9
:100D70003D00256384F83E50002070BD01EB410624
:100D8000431EB3FBF6F35B1CB3E70120C2E701EBA4
:100D90004101401EB0FBF1F0401CC0F30B00B7E76F
:100DA000A086010080841E0000093D0040420F0023
:100DB0002DE9FF4F83B00025DDE910799A4693466F
:100DC0000446DDF848800095FFF728FF064694F8B2
:100DD0003D0020287CD11923012285492046009618
:100DE00001F012FA0028F5D194F83C0001286FD0E8
:100DF000012084F83C0020680168C90703D101681C
:100E000041F0010101602068016821F40061016086
:100E1000222084F83D00402084F83E00256467626B
:100E2000A4F82A90608D20857248E062CDE90086A2
:100E300053465A462046049901F0EEF800287DD129
:100E4000208DDFF8B491202768B1012814D0022842
:100E5000206801681ED041F480610160206841690A
:100E600080690090B6E0206841698169009101685D
:100E700041F400710160ADE02068016821F48061F7
:100E8000016072B62068416981690091016841F48E
:100E900000710AE041F40061016072B620684169A6
:100EA00081690091016821F48061016062B691E07E
:100EB000032868D801280CD0022843464FF00002CE
:100EC0004946204600960FD001F09EF9B0BB10E0D5
:100ED0008BE032464146204601F015FA70BB20688F
:100EE0000069616A08706CE001F08EF930BB72B67F
:100EF00034E02068016821F48061016072B62068E6
:100F00000069616A0870606A401C6062208D401E42
:100F10002085608D401E6085384846F2A811006823
:100F2000B0FBF1F0C0EBC00000EB80000090401E71
:100F3000009008D020684069C04300E029E04007E5
:100F40000CD50098F3E744F8305F6773A573206908
:100F500040F02000206162B625731AE02068016825
:100F600041F40071016020680069616A0870606A7C
:100F7000401C6062218D491E2185618D491E61855D
:100F800062B621681BE032464146204601F0BBF9BB
:100F900018B1012007B0BDE8F08F20680069616AD0
:100FA0000870606A401C6062218D491E2185618D38
:100FB000491E618521684A69D24352070AD40969EA
:100FC0000170606A401C6062208D401E2085608D2B
:100FD000401E6085208D00287FF46AAF84F83D7044
:100FE00084F83E5084F83C50D4E70220D2E7000059
:100FF000020010000000FFFF04000100300000208C
:101000002DE9FF4F83B09A46DDE9119793460446D8
:10101000DDF84080FFF702FE054694F83D002028E9
:101020007FD11923012240492046009501F0ECF8B8
:10103000002876D194F83C00012872D0012084F871
:101040003C0020680168C90703D1016841F0010133
:1010500001602068016821F400610160212084F8AA
:101060003D00402084F83E0000262664C4F8248019
:10107000A4F82A90608D20852C48E062CDE90075A7
:1010800053465A462046049901F044F870B930E0BE
:101090002A463946204601F069F958B1206C0428E7
:1010A00004D12068016841F400710160012007B09B
:1010B000BDE8F08F606A216800780861606A401CB2
:1010C0006062218D491E89B22185628D521E628522
:1010D00022685369DB435B070BD469B10078106168
:1010E000606A401C6062208D401E2085608D401E1D
:1010F0006085208D0028CBD12A463946204601F054
:101100005DF80028CAD154F83D0B016841F4007124
:101110000160202004F81E09E67766770020C6E704
:10112000FFE70220C3E70000020010000000FFFFFD
:1011300010B586B0002100910191029103910068E1
:101140001349884222D1134CA06940F00800A061E5
:10115000A069694600F0080004904FF440700090C8
:1011600012200190032003900B48FFF759FC0B4815
:10117000416841F0E06141F002014160E06940F402
:101180000010E061E06900F40010049006B010BDAA
:101190000054004000100240000C014000000140DB
:1011A0000248816802781144816070472400002061
:1011B000074810B5016841F010010160032000F0FC
:1011C00075F8002000F006F800F024F8002010BDAB
:1011D0000020024070B50D4D04464FF47A71287816
:1011E000B1FBF0F00A490968B1FBF0F000F0ECFA4D
:1011F00048B9102C07D200222146501E00F036F8C4
:1012000000206C6070BD012070BD00002400002033
:10121000300000200C4808B5816941F0010181616E
:10122000816901F001010091C16941F08051C16102
:10123000C06900F0805000900448416821F0E061EE
:1012400041F00071416008BD001002400000014003
:10125000002809DB00F01F020121914040098000B5
:1012600000F1E020C0F8001170470000F0B40E4B10
:101270001B680C46C3F30223C3F10705042D00D9F4
:101280000425191D072901D2002300E0DB1E0126D9
:1012900006FA05F1491E214099409E40761E1640EF
:1012A0003143F0BC01F066BB0CED00E0064900F0F4
:1012B000070208684FF6FF03184040EA0220034A7D
:1012C00010430860704700000CED00E00000FA05D4
:1012D0002DE9F0470F46050061D0434E306800F01D
:1012E0000700B84209D2306820F007003843306068
:1012F000306800F00700B84251D128683B4C8107A4
:1013000012D5400703D5606840F4E060606028783B
:10131000000703D5606840F4605060606068A968A9
:1013200020F0F000084360602878C00728D0686883
:10133000012810D02168022810D0890700292EDA50
:10134000616821F0030101436160FFF767FC80469B
:1013500041F288390DE021688903EFE78901EDE763
:10136000FFF75CFCA0EB0801494502D90320BDE86A
:10137000F0876068696800F00C00B0EB810FEFD176
:10138000306800F00700B8420BD9306820F0070041
:1013900038433060306800F00700B84201D00120C7
:1013A000E5E72878400705D56068E96820F4E06043
:1013B000084360602878000706D56068296920F432
:1013C000605040EAC100606000F038F86168084A87
:1013D000C1F30311515CC840064908600648006823
:1013E000FFF7F8FE0020C2E7002002400010024094
:1013F000F02E000830000020280000200448054995
:1014000000684968044AC1F30221515CC840704732
:101410003000002000100240002F00080448054959
:1014200000684968044AC1F3C221515CC840704752
:101430003000002000100240002F000812A185B0EB
:101440000FC98DE80F0014A0144A00680490516879
:10145000134801F00C03042B10D0082B0ED1C1F35C
:101460008343C9031DF803000AD5516804AAC1F3D8
:101470004041515C0A4A5043B0FBF1F005B070475F
:1014800008494843FAE70000020304050607080973
:101490000A0B0C0D0E0F101001020000001002408C
:1014A00000127A0000093D002DE9F84F040070D0C9
:1014B0002078C04DC00749D06868C0F3810001287A
:1014C00007D06868C0F38100022809D16868C003AA
:1014D00006D52868800339D560680028E7D035E054
:1014E0006068B0F5803F0BD010B1B0F5A02F11D0DF
:1014F000286820F480302860286820F4802002E0EA
:10150000286840F480302860606890B1FFF786FB5F
:1015100006460AE0286840F480202860F0E700BF13
:10152000FFF77CFB801B642873D828688003F7D5FD
:101530000CE0FFF773FB064605E000BFFFF76EFB0C
:10154000801B6428F0D828688003F7D420789A4E4E
:1015500080074FF001094FF0000839D5686810F096
:101560000C0F07D06868C0F38100022809D16868B1
:10157000C00306D42868800714D52069012808D143
:1015800010E02069B0B1C6F80090FFF747FB0746AE
:1015900005E00AE1FFF742FBC01B0228C4D8286817
:1015A0008007F7D52868616920F0F80040EAC1009B
:1015B00028600DE0C6F80080FFF730FB074604E026
:1015C000FFF72CFBC01B022823D828688007F7D41C
:1015D000207800072CD57948A169D9B1C0F80090CE
:1015E000FFF71CFB074604E0FFF718FBC01B0228AF
:1015F0000FD8686A8007F7D571484FF4FA51006830
:10160000B0FBF1F0009000BF0098411E0091FAD2AB
:101610000EE080E0C0F80080FFF700FB074604E022
:10162000FFF7FCFAC01B022875D8686A8007F7D458
:101630002078400760D5E8690027C00008D4E86931
:1016400040F08050E861E869012700F08050009088
:101650005C480168C90513D40168834641F4807170
:101660000160FFF7DBFA824606E000BFFFF7D6FA1B
:10167000A0EB0A0064284ED8DBF80000C005F5D5C1
:10168000E06801280AD008B1052813D0286A20F0A4
:1016900001002862286A20F0040002E0286A40F075
:1016A00001002862E06841F2883B98B1FFF7B6FA82
:1016B00082460BE0286A40F004002862EEE700BF93
:1016C000FFF7ACFAA0EB0A0159455AD8286A8007FF
:1016D000F6D50CE0FFF7A2FA824605E0FFF79EFA86
:1016E000A0EB0A0159454CD8286A8007F6D41FB1EF
:1016F000E86920F08050E861E06988B36968C1F367
:101700008101022944D00228C6F8608004D0FFF786
:1017100085FA044638E034E0FFF780FA074604E033
:10172000FFF77CFAC01B02282BD828688001F7D469
:10173000206AB0F5803F05D16868A16820F40030C8
:1017400008436860D4E908010843696821F474110A
:1017500008436860C6F86090FFF760FA044606E048
:1017600025E000BFFFF75AFA001B022809D82868B5
:101770008001F7D51BE000BFFFF750FA001B0228DD
:1017800002D90320BDE8F88F28688001F4D40EE068
:101790000128F7D06868226A00F48031914204D1B0
:1017A000616A00F47010884201D00120EAE700204D
:1017B000E8E700000010024000004242800442427C
:1017C000300000200070004010B5401EB0F1807F56
:1017D00001D3012010BD4FF0E02460610F2160179C
:1017E00001F0C8F80020A06107202061002010BD92
:1017F0007047704770B590F83C20012A26D001242C
:1018000080F83C40022280F83D2003685A689D68B9
:1018100022F070060A6832435A600D4B02689A4201
:1018200008D0B2F1804F05D00A4B9A4202D00A4B41
:101830009A4204D1496825F080031943916080F8E9
:101840003D40002180F83C10084670BD022070BD6C
:10185000002C0140000400400008004010B50400C6
:1018600003D094F83D0010B107E0012010BD002026
:1018700084F83C00204600F01FF8022084F83D0068
:10188000211D206800F0B0FE012084F8460084F895
:101890003E0084F83F0084F8400084F8410084F85A
:1018A000420084F8430084F8440084F8450084F83A
:1018B0003D00002010BD000008B5114A0168114824
:1018C000914208D1816941F400618161806900F42D
:1018D0000060009008BDB1F1804FFBD1C16941F0BB
:1018E0000101C161C069002200F0010000901146B1
:1018F0001C20FFF7BBFCBDE808401C20FFF7A8BC7C
:10190000002C01400010024090F83D10012901D048
:1019100001207047022180F83D100168CA6842F03A
:101920000102CA6000680B49884208D0B0F1804FBC
:1019300005D00949884202D00849884204D181680B
:1019400001F00701062903D0016841F0010101609F
:1019500000207047002C01400004004000080040B7
:1019600070B5044690F83C00012817D0012584F892
:101970003C50022084F83D002068826822F0770203
:1019800022F47F4282600868502830D00DDC202885
:101990004DD005DC98B310283BD148E0022070BD43
:1019A000302844D0402834D139E0602828D070282D
:1019B00006D0B0F5805F2CD0B0F5005F29D10AE0E9
:1019C000CB68D1E90121206800F044FE20688168DD
:1019D00041F0770109E0CB68D1E90121206800F0EE
:1019E00039FE2068816841F48041816011E0CA6855
:1019F0004968206800F040FE5021206807E016E0AA
:101A0000CA684968206800F048FE6021206800F03C
:101A10002BFE84F83D50002084F83C0070BDCA685D
:101A20004968206800F028FE40212068EFE722681E
:101A300001461046EBE72DE9F0410D46040003D0C6
:101A400094F83D0018B108E00120BDE8F0810020C5
:101A500084F83C00204600F041F8022084F83D0064
:101A60002068816844F2070291438160211D20684B
:101A700000F0BAFD226890689169166A2B68AF6918
:101A8000034340F20330814341EA0721A868EF692C
:101A900008434FF6FC418843E96840EA07200143C8
:101AA00028692F6A000140EA0730084369686D69B8
:101AB00026F0220646EA05152943936022689061C4
:101AC00054F8460B0162012004F81F09E0752076E6
:101AD000E0762077A0750020B7E7000000B585B05C
:101AE0000021009101910291039100680D49884203
:101AF00016D10D48C16941F00201C161C16901F00F
:101B000002010491816941F00401816180696946A3
:101B100000F004000490C02000900448FEF780FF0D
:101B200005B000BD00040040001002400008014064
:101B3000704770B50446006801694FF00005C9435D
:101B4000890715D4C168C943890711D4E91E016109
:101B500001202077206880698007204602D0FFF7A7
:101B6000E7FF04E000F098F8204600F096F82577AB
:101B700020680169C943490717D4C168C9434907A7
:101B800013D46FF00401016102202077206880697E
:101B900010F4407F204602D0FFF7CAFF04E000F0B7
:101BA0007BF8204600F079F8257720680169C94361
:101BB000090716D4C168C943090712D46FF0080198
:101BC0000161042020772068C0698007204602D088
:101BD000FFF7AEFF04E000F05FF8204600F05DF88C
:101BE000257720680169C943C90617D4C168C9436C
:101BF000C90613D46FF01001016108202077206816
:101C0000C06910F4407F204602D0FFF791FF04E046
:101C100000F042F8204600F040F82577206801697E
:101C2000C943C90708D1C168C943C90704D1891E7E
:101C30000161204600F032F820680169C9430906B5
:101C400009D4C168C943090605D46FF08001016158
:101C50002046FFF7CDFD20680169C943490609D434
:101C6000C168C943490605D46FF0400101612046AF
:101C700000F026F820680169C94389060BD4C168C1
:101C8000C943890607D46FF0200101612046BDE8F1
:101C90007040FFF7AEBD70BD7047704710B5FEF7DE
:101CA000BDFF054C4FF40051A0600448FEF7A8FFAB
:101CB000A068E06010BD000000000020001001409E
:101CC000704738B5044690F83E0020281CD181B1F9
:101CD0007AB194F83C00012816D0012084F83C0029
:101CE0002063204600F0C8FD002803D1216B0129A4
:101CF00001D0012038BD21680A684A680092CA688C
:101D000042F01002CA6038BD022038BD10B50C4642
:101D100008490F2201F5C070FFF7D3FF0648E2B271
:101D200004490270BDE81040642301F59E7000F084
:101D300001B90000840000200000002010B504005C
:101D400014D0242084F83D002068C16821F400519B
:101D5000C160204600F03EF80020206484F83D0079
:101D600084F83E0044F8300F207310BD012010BDF0
:101D7000704770B5040004D094F83D00002510B100
:101D800006E0012070BD84F83C50204600F04EF87B
:101D9000242084F83D002068C16821F40051C1600E
:101DA000204600F00DFD2068016921F49041016199
:101DB0002068416921F02A0141612068C16841F42D
:101DC0000051C1602564202084F83D0084F83E0065
:101DD000002070BD10B5044600680F4A0F499042BC
:101DE00009D1886920F480408861BDE81040C02195
:101DF0000B48FEF797BD0B4A90420CD1C86920F4FE
:101E00000030C8610C210848FEF78CFDA06BBDE8CE
:101E10001040FEF737BC10BD0038014000100240F2
:101E2000000C01400044004000080140F0B585B0BE
:101E3000002400940194029403940646344D0368F0
:101E40003448022103228027AB4228D1836943F41E
:101E500080438361836903F480430493836943F07F
:101E60000803836180692C4D00F008000490402035
:101E7000CDE90001039269462846FEF7D1FDCDE980
:101E80000074694628460294FEF7CAFD234841685B
:101E900041F0E06141F00401416005B0F0BD204D2A
:101EA000AB42FAD1C36943F40033C361C36903F49D
:101EB00000330493836943F0040383618069194DFF
:101EC00000F0040004900420CDE90001039269466B
:101ED0002846FEF7A5FD0820CDE9000469462846FE
:101EE0000294FEF79DFD114D0F48C5E90004C5E9B8
:101EF000024720202C61C5E905402846EC61FEF729
:101F000099FC08B1FEF790FBB5636E62C5E700006F
:101F10000038014000100240000C01400000014068
:101F200000440040000801406C00024048020020CC
:101F3000704770472DE9F843044690F83D001F466E
:101F400016460D4620284CD1C5B1BEB194F83C00D0
:101F5000012846D0012084F83C004FF00008C4F866
:101F60004080212084F83D00FEF758FEA68481467B
:101F7000E684A068B0F5805F03D004E00120BDE8EE
:101F8000F883206928B12E465FF0000584F83C8074
:101F90000EE00026FAE78021204600F0A5FCA0B95B
:101FA000AEB116F8010B21684860E08C401EE08459
:101FB000E08C4B464FF0000200970028EBD14FF029
:101FC0004001204600F090FC30B10320D7E735F8FF
:101FD000020BC0F30800E6E7202084F83D00002053
:101FE000CDE70220CBE7FEE701684A69D2435205FC
:101FF0000FD46FF480624A61002140F8301F202224
:1020000042738173026942F004020261017301208C
:1020100070470020704700002DE9F84F0446006823
:1020200089460B9D01689846174641F4806101601E
:102030002068016841F48071016000954FF0011B38
:102040000022594620460A9B00F0DEF84FF4007A41
:1020500040B120680068C00501D5C4F840A0032045
:10206000BDE8F88F216809F0FE0008612B46284979
:1020700020460A9A00F0FCF8F0BB206841698069AC
:1020800000902A4620460A9900F070F940B1206C71
:1020900004283AD12068016841F40071016034E0FD
:1020A000FEB2B8F1010F09D02168380A08612A464A
:1020B00020460A9900F05AF90028E8D12068066104
:1020C0002A4620460A9900F051F90028DFD12068FD
:1020D000016841F480710160009500225946204654
:1020E0000A9B00F091F80028B3D1216809F0FF00A5
:1020F00040F00100086100E007E02B46044920465B
:102100000A9A00F0B5F80028AAD00120A8E700003C
:10211000020001002DE9F843044600680D46DDE9A0
:10212000089701689846164641F4807101604B4655
:1021300000224FF001112046009700F065F848B1E9
:1021400020680068C00502D54FF4007020640320A9
:10215000BDE8F883216805F0FE0008613B464A4669
:102160001549204600F084F888B9206841698069E3
:1021700000903A464946204600F0F8F848B1206CF5
:10218000042804D12068016841F400710160012035
:10219000DEE7F5B2B8F1010F09D02168300A086115
:1021A0003A464946204600F0E1F80028E7D1206889
:1021B00005610020CCE700000200010070B5164662
:1021C0000D4604460DE02046FFF70EFF08B1012042
:1021D00070BD681C05D0FEF721FD801BA84207D802
:1021E00035B120684069C0434007ECD4002070BD81
:1021F000002044F8300F20216173A073216941F061
:10220000200121612073E2E72DE9F0471E46904648
:102210000D460446C1F30747DDF8209008E0701C26
:1022200006D0FEF7FBFCA0EB0900B0420FD876B158
:102230002068012F18D0806925EA00000004000CF6
:1022400014D000214145EAD00020BDE8F0870020ED
:1022500044F8300F20216173A073216941F02001FF
:10226000216120730120F0E74069E5E70121E9E7FA
:102270002DE9F0479A4691460E46044600254FF058
:102280002008C1F3074725E020684069C0434005A6
:1022900014D42068016841F40071016021686FF472
:1022A00080604861256384F83D8084F83E50206C4E
:1022B00040F00400206484F83C501FE0B9F1FF3F77
:1022C00008D0FEF7ABFCA0EB0A0149450CD8B9F1E8
:1022D000000F09D02068012F13D0806926EA000082
:1022E0000004000C0BD0CFE744F8305F84F80D8079
:1022F000A573206940F02000206125730120BDE80E
:10230000F0874069EAE72DE9F041002590460E4646
:102310000446202717E04069C043C0060CD454F897
:10232000301B6FF01000486144F810596777A577AB
:10233000206A2062257717E0FEF770FCA0EB08000A
:10234000B04208D83EB120684169C9434906E2D489
:102350000020BDE8F08144F8305F6773A573206901
:1023600040F02000206125730120F2E770B5164689
:102370000D4604460DE02046FFF736FE08B1012069
:1023800070BD681C05D0FEF749FC801BA84207D829
:1023900035B120684069C0430006ECD4002070BD10
:1023A000002044F8300F20216173A073216941F0AF
:1023B000200121612073E2E770B586B000241C483B
:1023C0000094019402940394816941F010018161A9
:1023D000816901F010010491816941F0200181615E
:1023E000816901F020010491816941F0040181615A
:1023F000816901F004010491816941F00801816162
:1024000080690C4E00F008004FF400550490002243
:1024100029463046FEF7FCFB01200095CDE901047A
:102420000220039069463046FEF7FAFA06B070BD06
:10243000001002400010014010B586B0002417487B
:102440000094019402940394049413490594C0E900
:10245000001440F6B831C0E902410461446184616E
:10246000FFF7FCF908B172B6FEE74FF48050009018
:1024700069460A48FFF774FA08B172B6FEE7049499
:1024800004A906480594FFF7B5F9002801D072B6F3
:10249000FEE706B010BD0000002C0140E80000205F
:1024A00010B586B000241748009401940294039458
:1024B00004944FF08041059401604FF47A71C0E9B3
:1024C00001144FF43471C0E9031480218161FFF7D6
:1024D000C5F908B172B6FEE74FF480500090694626
:1024E0000848FFF73DFA08B172B6FEE7049404A964
:1024F00004480594FFF77EF9002801D072B6FEE784
:1025000006B010BD3001002010B58CB02421684603
:10251000FDF731FE00241548099413490A94C0E9D7
:1025200000144FF6FF71C0E902410461846101208B
:10253000CDE90004CDE902040494CDE905400794F7
:1025400069460A480894FFF776FA08B172B6FEE7C2
:10255000099409A905480A94FFF74CF9002801D00D
:1025600072B6FEE70CB010BD0004004078010020F8
:10257000FEE7FEE770477047FEF712BE30B58FB03A
:1025800028216846FDF7F7FD14210AA8FDF7F3FDA1
:1025900001210804CDE900100024029402250491D1
:1025A000CDE907504FF4E01009906846FEF77CFF34
:1025B00008B172B6FEE70F20CDE90A054FF480603E
:1025C000CDE90C4002210AA80E94FEF781FE0028F6
:1025D00001D072B6FEE70FB030BD70470148FFF77B
:1025E000A8BA000030010020F0B50268164B174C65
:1025F000174D4FF08047984205D0B84203D0A04213
:1026000001D0A84203D122F070064A6832439842B2
:1026100005D0B84203D0A04201D0A84203D122F491
:102620004074CA6822434C6922F08002224302604F
:102630008A68C2620A688262984201D109690163AC
:1026400001214161F0BD0000002C01400004004068
:102650000008004010B5846842EA032224F47F4455
:102660000A432243826010BD826822F070020A434E
:1026700042F007018160704710B5036A046A24F0D4
:1026800001040462846924F0F00444EA021423F093
:102690000A020A438461026210BD10B5036A23F086
:1026A000100303628369046A23F4704343EA02322D
:1026B00024F0A00343EA01118261016210BD70B5EC
:1026C000446A2068406994F83D10C0F3C0100025AA
:1026D000212904D118B1E584204600F067F820686C
:1026E000406994F83E10C0F38010222904D118B13B
:1026F000E585204600F042F8206C40F01000206490
:102700002046FFF735FB70BD10B50146406A0968E9
:10271000096889061BD40021C1850168CA6822F4B2
:102720008072CA6001684A6922F001024A61016848
:102730004A6922F040024A61202180F83E10016B74
:10274000012904D10168CA6822F01002CA60016B35
:10275000012902D0FFF7ECFB10BD818DFFF7D6FAFF
:1027600010BD10B5406A016B012902D0FFF7E1FBF3
:1027700010BD818D4908FFF7C9FA10BD0168CA680C
:1027800022F49072CA6001684A6922F001024A612B
:10279000016B012904D10168CA6822F01002CA60E5
:1027A000202180F83E100021016370470168CA684B
:1027B00022F0C002CA60202180F83D10704700005E
:1027C00070B5044600680169E26821F44051114384
:1027D00001612169A0680843616908432168CA68EA
:1027E00041F20C639A430243CA6020684169A269BE
:1027F00021F44071114341611E492068884202D191
:10280000FEF70CFE01E0FEF7F9FD00EBC00101EB65
:102810000012606864218000B2FBF0F3B3FBF1F3B7
:102820006FF018067343B2FBF0F5B2FBF0F605EB60
:102830008305322303EB0515B5FBF1F5B6FBF1F685
:1028400005F0F00505EB0615B2FBF0F6B2FBF0F073
:10285000B0FBF1F06FF01802504306EB800003EB81
:102860000010B0FBF1F0216800F00F0028448860F0
:1028700070BD00000038014038B5816282850025B6
:10288000134604460564222084F83E00A26B1348D8
:102890009062A26B1248D062A26B12481063A06BC8
:1028A0000A4645632168A06B091DFDF7F1FF20680A
:1028B00001684168009184F83C50C16841F480711E
:1028C000C1602068416941F00101416120684169AE
:1028D00041F040014161002038BD00000927000897
:1028E00063270008BF2600082DE9F04198461746E7
:1028F0000E460446069D1DE0681C1BD02DB1FEF758
:102900008DF9A0EB0800A84214D92068C16821F411
:10291000D071C1602068416921F00101416120202E
:1029200084F83D0084F83E00002084F83C00032039
:10293000BDE8F0812068006836EA000004D000207D
:10294000B842D9D00020F3E70120F9E7FEE74100C3
:10295000080218BF04200A0E18BF40F001004FF013
:102960007F4232EA010108BF40F00200012808BF9F
:10297000052070470907090E002804DB00F1E0205C
:1029800080F80014704700F00F0000F1E02080F89C
:10299000141D7047FDF7FABB6FF05E010807FDF7E5
:1029A000BDBC02E008C8121F08C1002AFAD1704756
:1029B0007047002001E001C1121F002AFBD17047BF
:1029C0002DE9F0474FF0684202EB40030C46054604
:1029D000B3F1654F3CBF02EB4102B2F1654F7CD2CF
:1029E000C0F3C753C1F3C7529A1A1B2A06DD10F071
:1029F000004F14BF76487748BDE8F08712F11A0FF0
:102A000017DA11F0004F06D010F0004F0CBF7248DB
:102A10007248BDE8F08721462846FDF741FC044690
:102A2000FFF795FF042808BFFFF7B6FF2046BDE873
:102A3000F0874200B2EB410F25D910F0004F19BFCB
:102A4000674F684E684F694E224685F00044154630
:102A50000A4680F0004110460A1A5200B2F1807F07
:102A600040D248406249DFF88CA110F0004F18D0E6
:102A70004FF03F483846FDF7DBFB074651463046EE
:102A8000FDF7D6FB17E011F0004F04BF00263746D4
:102A9000E2D010F0004F19BF574F584E584F594EC3
:102AA000DAE74FF07C583846FDF770FB0746514691
:102AB0003046FDF76BFB064641462846FDF7BEFB58
:102AC0002146FDF763FB824621464046FDF7B6FBF3
:102AD0002946FDF7B0FB514600E037E0FDF7E0FB8B
:102AE000044604E021462846FDF7DAFB0446014689
:102AF000FDF7A4FB80464449FDF7A0FB4349FDF7E1
:102B000045FB4146FDF79AFB4149FDF73FFB414636
:102B1000FDF794FB3F49FDF739FB4146FDF78EFB7E
:102B20003D49FDF733FB054641462046FDF786FB50
:102B30002946FDF783FB3146FDF728FB2146FDF7CB
:102B400025FB3946BDE8F047FDF720BB4FF07F423B
:102B5000B2EB400F28BFB2EB410F03D2BDE8F04704
:102B6000FFF718BF40EA01035B0008BF44F0FF41D4
:102B70000AD0B2EB400F08BFB2EB410F06D125F0EF
:102B8000804024F0804105460C4629E7B2EB400F17
:102B900012BF5FEA410245F0FF4004F000413FF4FC
:102BA0001FAF4A0092EA40033FF51AAF002AACBFBC
:102BB0004FF09F464FF03E563146FDF73FFB05462E
:102BC00031462046FDF73AFB04462846214607E7F2
:102BD000DB0FC9BFDB0FC93FDB0F4940DB0F49C02B
:102BE0000000C9BF22AAFDB90000C93F22AAFD39D1
:102BF0000060ED3EC30ACE37000049C022AA7DBA6C
:102C00000000494022AA7D3A2DAD65BD8FB8D53D63
:102C10000FB511BE61C84C3EA8AAAABE64231C22EF
:102C200001490248FFF786B958000020040200203D
:102C300064230E2201490248FFF77CB9740000208A
:102C40000402002010B50748FFF778F805494FF453
:102C5000E13048600846FFF78CF8002801D072B6D2
:102C6000FEE710BD040200207FB5012403ADCDE9CD
:102C7000005464268DF80C4023460B221A21084884
:102C80000296FEF7BDF9CDE900548DF80C40012302
:102C900009221A2102480296FEF7B2F97FBD000010
:102CA0009400002070B50446188820805888088059
:102CB00098881080B1F90000FDF7ABFB0546B4F928
:102CC0000000FDF7A6FB2946FFF77AFE0949FDF74C
:102CD000B5FAFDF7A7FB084A084BFDF72BFBFDF7FC
:102CE000B4FB10F1FF4F04D3BDE870400449FDF779
:102CF0004DBA70BD000034431F85EB51B81E09402A
:102D00000000B44310B50021084600F0D3F80021BC
:102D1000012000F0CFF80021022000F0CBF80021C4
:102D2000032000F0C7F80021042000F0C3F80021C0
:102D3000BDE81040052000F0BDB80121084600F0B4
:102D4000B9B870B5002302221C468D1E06E0865CD1
:102D5000521C3344DBB21C44E4B2D2B2AA42F6DBCA
:102D6000084400F8023D447070BD000008B5FEF74D
:102D70001FFAFFF703FCFFF71FFB3E48416941F0D4
:102D8000010141614069002200F001000090012131
:102D90001020FEF76BFA1020FEF75AFA3748364932
:102DA000002401603649C0E901144FF48041C0E9B4
:102DB000034144618461C4610462FDF735FF08B1D9
:102DC00072B6FEE730482F490C2501604FF4E1311F
:102DD000C0E90114C460C0E904458461C461FEF720
:102DE000C8FF08B172B6FEE72748284944300160A1
:102DF0004FF41651C0E90114C460C0E90445846170
:102E0000C461FEF7B6FF08B172B6FEE7FFF748FBF4
:102E1000FFF712FBFFF778FB1848FDF705FF1A488C
:102E20009038FEF771FDFDF701FCFFF71DFF134918
:102E30000F22103901F5C070FEF743FF12488830A9
:102E40000068016821F004010160114CFDF7E6FE05
:102E500060610F481C3000F01DF80D4B1C33A3F1CE
:102E60001602911E881EFFF71DFF2061FDF7D6FE9A
:102E7000A061EBE7001002400054004094000020E5
:102E8000A086010000380140C0010020004400403D
:102E9000000000200EB50622CDE90002C8210291F3
:102EA000012300221A210248FDF782FF0EBD000017
:102EB000940000207FB50D46044610220A4968465A
:102EC000FDF740F915B101208DF809008DF8074094
:102ED00010216846FFF735FF642310226946034836
:102EE000FFF728F87FBD0000082F0008040200202B
:102EF00000000000000000000102030406070809AA
:102F00000000000001020304B56206010800F000A1
:102F10000000000000000000382F00080000002022
:102F200084000000A2290008BC2F000884000020B3
:102F30000C060000B229000800000000000000009C
:102F40000000000000000000000000000000000081
:102F50000000000000000000000000000100000070
:102F600010000000000000000024F4000000000039
:102F70000000000000000000000000000000000051
:102F80000000000000000000000000000000000041
:102F9000B5620600140001000000D008000000C265
:102FA00001000700030000000000C07EB5620608B3
:0C2FB00006006400010001007A1200001D
:04000005080000ED02
:00000001FF
